:046000006F0060527B
:106004000060000000000000C8620000CA620000D6
:1060140000000000246500000000000000000000F3
:10602400246500002465000000000000000000005A
:10603400246500000000000024650000000000004A
:106044002465000024650000246500002465000028
:106054002465000024650000246500002465000018
:106064002465000024650000246500002465000008
:1060740024650000246500002465000024650000F8
:1060840024650000246500002465000024650000E8
:1060940024650000246500002465000024650000D8
:1060A40024650000246500002465000024650000C8
:1060B40024650000246500002465000024650000B8
:1060C40024650000246500002465000024650000A8
:1060D4002465000024650000506E00002465000063
:1060E4002465000024650000246500002465000088
:1060F4002465000024650000246500002465000078
:1061040000000000246500002465000024650000F0
:106114002465000024650000FA6C0000246500007A
:106124002465000024650000246500002465000047
:106134002465000024650000246500002465000037
:106144002465000024650000246500002465000027
:106154002465000024650000246500002465000017
:106164002465000024650000246500002465000007
:1061740024650000246500002465000024650000F7
:1061840024650000246500002465000024650000E7
:1061940024650000246500002465000024650000D7
:1061A40000000000000000000000000000000000EB
:0C61B400000000000000000000000000DF
:1061C000397101436EC619A0397141536AC866CA54
:1061D00062CC5ECE19A0397101535AD056D252D436
:1061E0004ED64AD826DA22DC06DE330161408282AE
:1061F00041114AC026C222C406C68282B24D410164
:10620000024D924C224CB24B4101024B924A224A1F
:10621000B2494101024992442244B2404101828084
:106220003D432A876373C3029377F700BDEFADE563
:10623000937606FF3D8ABA960CC34CC30CC74CC775
:106240004107E36BD7FE11E28280B306C3408A06A2
:106250009702000096966780A6002307B700A30662
:10626000B7002306B700A305B7002305B700A304B2
:10627000B7002304B700A303B7002303B700A302AA
:10628000B7002302B700A301B7002301B700A300A2
:10629000B7002300B700828093F5F50F9396850031
:1062A000D58D93960501D58D61B7939627009702FA
:1062B000000096968682E78086FA9680C1171D8F29
:1062C0003E96E374C3F8A5B701A0B707EFBE37E762
:1062D00000E0938707083CC701A0EFF27FF1094572
:1062E000A529112AEF00D049716513050520EF009B
:1062F000D04BEF007043EF00F044F5BFB7170240FA
:106300009843B706FFF041111367170098C3D843AD
:1063100037060200758FD8C39843B706F7FEFD16FF
:10632000758F98C39843B706FCFFFD16758F98C309
:10633000D843B70601FFFD16758FD8C39843B7063B
:1063400000ECFD16758F98C33707FF0098C723A68A
:10635000070202C402C69843C166558F98C3B71698
:10636000024005679C42F18F3EC6A24785073EC4A6
:10637000B24781E7A247E397E7FEB71702409C4385
:106380001397E7006357070685473EC632478547A0
:10639000631FF704B7170240D843B706C1FFFD16C5
:1063A000D8C3D843D8C3D84313670740D8C3D8430A
:1063B000758FD8C3D843B7062900558FD8C39843E3
:1063C000B7060001558F98C3984393166700E3DD25
:1063D00006FED843B7160240719BD8C3D843136753
:1063E0002700D8C32147DC42B18BE39EE7FE410181
:1063F000828002C661BFB7160240D842B7070020AC
:106400001146318B938787096305C70021466308CE
:10641000C70237177A001307072098C337170240BF
:10642000584311839376F7003707002013070700BE
:106430003697142398433357D70098C38280D842A5
:10644000D442416649833D8BF18E1306270015CF58
:106450003D47630FE6024147630FE602454781452A
:106460006313E6004146A1E2374702400327078055
:10647000418B0DC737177A00130707203306C70271
:1064800090C3C9DD9843058349BF81454946E1BFB3
:1064900085453546C9BF81453D46F1B737173D00B3
:1064A00013070790E1BF3715024058559316F700C0
:1064B000585563DF060411833D8B93061700371789
:1064C0007A00130707203357D70298C35455A18287
:1064D000BD8A8DE295463307D702058398C33717E7
:1064E0000240585794433D8B050733D7E60298C3C3
:1064F000984369B705456394A600E546E9BF3D4565
:106500006396A600D1463387E602C9BF8906E5BF78
:106510003D8B9306170037177A0013070720335770
:10652000D702F1B701A097A1FF1F9381213717A1CF
:106530000020130121AD17350000130565C397A591
:10654000FF1F938525AC1386018263FAC500832261
:10655000050023A0550011059105E3EAC5FE13854A
:106560000182938501C76377B500232005001105DB
:10657000E36DB5FEFD42739002BCAD427390428064
:10658000B762000093828208739002309702000085
:10659000938282A793E2320073905230EFF01FD6BD
:1065A000970200009382A2D37390123473002030BC
:1065B000B707674537270240938737125CC3B79701
:1065C000EFCD9387B79A5CC38280372702401C4B7C
:1065D00093E707081CCB8280B7270240C8C7828098
:1065E000372702405C470545858B91E7484741893D
:1065F000133515000D058280EFF29FBF2A84854474
:10660000C5376318950019E0154529A0D13F7D14C1
:10661000CDBF7DD801B1EFF2BFBDAA84370513000D
:10662000E13F91476313F502372402401C483705C8
:10663000130093E727001CC844C81C4893E70704CD
:106640001CC85D3F1C48F59B1CC8E9B6EFF2BFB8FB
:1066500041112A891565AE8402C69149713F631BB9
:106660003503372402401C48156593E717001CC802
:1066700093970401C1832310F900BD3F63193501CD
:1066800009094AC6B247C180156586A3B5371C48BB
:10669000F99B1CC8410195BE9C4513F7070113F8EF
:1066A000F70001C7D8413368E8008E2113F7F50FD2
:1066B00039C318418146854E3D4F930F80029302A6
:1066C0008004214E3396DE00B3F8C5006311160333
:1066D0009398260033131F011343F3FF3377E3002E
:1066E000B318180133E7E800639FF70550C9850622
:1066F000E39AC6FD18C11307F00F6375B704544140
:106700002146854E3D4F930F800293028004414EF7
:10671000B398CE0033F715016392E80213172600F1
:1067200001173313EF001343F3FFB376D30033178E
:10673000E800D98E639DF701232A15010506E319A8
:10674000C6FD54C18280E39457FA10C94DB7E39750
:1067500057FE23281501DDB723A0A182828003A75D
:106760000182894710216311F70214318D4763EDCF
:10677000D7003C219A0637E700E09607D58F93F7BC
:10678000F70F32972300F7405441054793575600BF
:106790003317C70089CA938707048A07B7E600E062
:1067A000B69798C3828093870706B7E600E08A070A
:1067B000B69798C30F1000008280371702405C43E1
:1067C0009146B18B6385D700A1466382D706B71780
:1067D0007A00938707201CC1371602405C423707B6
:1067E0000020130707019183BD8BBA9794231C41A6
:1067F000B3D7D7005CC15442A1829D8ABA96942235
:10680000B3D6D70014C55442AD829D8A369718235B
:10681000B3D7E7005CC558423983937637001387B6
:10682000418036971823B3D7E7021CC982805C43A6
:106830005843C166C983758FB7F6FF1F83A6C6701C
:10684000BD8B89071396160163480600C5460146AD
:106850006392D702C94739A88946638FD702BD46DC
:10686000638ED702C146638ED702C5460146639345
:10687000D700C1471DEF3747024003270780418BF0
:1068800005C737177A0013070720B307F7021CC1A3
:1068900021D61C41858381B701466DBF0546B547AA
:1068A000D1BF0146BD47F9B737173D001307079021
:1068B000E9BFB7150240D8559316F700D85563DFE6
:1068C000060411833D8B9306170037177A001307D0
:1068D00007203357D70218C1D455A182BD8A8DE253
:1068E00095463307D702058318C13717024058571A
:1068F00014413D8B050733D7E60218C1184171B723
:1069000085456394B600E546E9BFBD456396B6008C
:10691000D1463387E602C9BF8906E5BF3D8B9306A2
:10692000170037177A00130707203357D702F1B73C
:1069300099C5371702401C4F5D8D08CF8280B7176D
:106940000240984F1345F5FF798D88CF828099C515
:10695000371702405C4F5D8D48CF8280B7170240E9
:10696000D84F1345F5FF798DC8CF828099C5371769
:1069700002405C475D8D48C78280B7170240D84708
:106980001345F5FF798DC8C7828099C53717024036
:106990001C4B5D8D08CB8280B7170240984B134586
:1069A000F5FF798D88CB828037F7FF1F032747706B
:1069B0001E21914611833D8BC2077117C18363E687
:1069C000E60237370140930607C0630ED500130770
:1069D0000740630AE50037570140930607C0630488
:1069E000D500631AE5000967D98F373701401307CF
:1069F00007C06302E50437070040630EE502130792
:106A00000740630AE50237170040930607806304D6
:106A1000D502130707C06300E502373701401307AB
:106A20000740630AE50037570140930607C0630437
:106A3000D5006318E50093F7F7F8BA21C207C183C0
:106A4000D98F37170040630CE50013070740630830
:106A5000E50093F7F7CFFA21C207C183D98F1EA1B2
:106A6000DE215EB59E211EB5B7370140138707C0F2
:106A7000630EE50093870740630AF500B7570140AE
:106A8000138707C06304E5006314F5009C251EB955
:106A900085475EA982801E2189C593E717001EA144
:106AA0008280C207C183F99BC207C183CDBF5E2527
:106AB00001C6DD8D4EA5828093C5F5FFFD8DDDBF3E
:106AC0001E294A25ED8F4205418189C76D8D3335D9
:106AD000A00082800145828093C5F5FFC205C18177
:106AE0000EA98280EFF2CFF0B7470140938707806D
:106AF000631AF50085451165953D81451165BD35E4
:106B00006FF04FF1B747004093870740631BF500D4
:106B1000854537050200953D814537050200B535AD
:106B2000C5B7B757004013870780631AE50085454E
:106B300037050400993D814537050400CDB713871B
:106B400007C0631AE5008545370508003D3D8145CE
:106B500037050800E9B7631AF500854537051000C9
:106B60002D358145370510005DBFB72700401387DD
:106B70000780631AE5008545130500043935814512
:106B80001305000469BF138707C0631AE500854534
:106B900013050008DD3B81451305000849B7E311E3
:106BA000F5F6854513050010CD338145130500101A
:106BB000BDB7EFF2EFE31629F577FD17F58FF62154
:106BC000DA257971D58F1EA95625FD779387379FD2
:106BD000F58FD6212A842EC6D58F9625D58FB6253A
:106BE000D58F5EA55E29C207C18393F7F7CFD98FF2
:106BF0005EA96808D936B747014093870780B24538
:106C0000631EF402A2576547B387E70298419306D3
:106C100040060A07B3D7E70233D7D702B3F7D70244
:106C20001207920793872703B3D7D702BD8BD98F5B
:106C3000C207C1831EA445616FF0CFDD9257E1B753
:106C40008967938707581CC1B7070C0023220500EA
:106C50001CC523160500828091C55E250967D98F62
:106C60005EA582805A25F977FD17F98FD5BF13F7F6
:106C7000F50F85471583B395B7006319F7009307A0
:106C8000C500984301CED98D8CC382808946930775
:106C90004501E318D7FE93070501E5B793C5F5FF56
:106CA000F98DDDB793F5F51F4EA182804A2113754A
:106CB000F51F82800A216D8D3335A000828013F785
:106CC000F50F85461583B397B6006311D7025A2591
:106CD000F98F1A2101454207418381CB0545A181E6
:106CE000B315B5006D8F3335E0008280894663149B
:106CF000D7001A29F1BF5A29E1BF85453715004051
:106D0000C13385476317F500938741829843050790
:106D100098C3854537150040C13373002030EFF22A
:106D20002FCD01118545414502C602C802CA02CCD9
:106D3000231E01002939B707002083A78709374799
:106D40000F0013070724B3D7E7024C08371500409C
:106D5000231B0100FD17FC829307703E3ECCA93136
:106D60008545371500408D3B930760047C86854739
:106D70005C87680085473EC8DD3205468545371586
:106D800000403533854537150040313305616FF0DC
:106D90006FC803A541828280EFF28FC57971854566
:106DA000114502CA02CC02CE02D002D202D402D6CF
:106DB00002C602C8B53E854537050200493E9147E7
:106DC000FC82371401408D473ECC4C08E147130547
:106DD00004803ECEEFF05F8CA1474C08FC82130587
:106DE00004809147374400403ECEEFF0FF8A130500
:106DF0000440CD390810A935F167938707203ED0AC
:106E00000C10B7070C00130504403ED402D2231621
:106E10000102453305461305044093055052813D58
:106E20008545130504400D3D930760137C8668007B
:106E300085473EC8230701001D3213060040938595
:106E40000184138501C4EF00006E45616FF08FBCB3
:106E5000011122CE374400409305505213050440DF
:106E6000B93D19CD130504409135C8871D3723A4BA
:106E7000A18205469305F100138501C4EF00E0727D
:106E80007244056173002030130101DC23282121A5
:106E90002324C1222326D1222E8634142A89930545
:106EA00000200808232C8120232E1120232A912042
:106EB0002328E122232AF122232C0123232E11232C
:106EC00036C6EF10C0137D54634605002A84814402
:106ED000639E840022858320C12103248121832491
:106EE00041210329012113010124828083570900D4
:106EF00093F70708E5DF1C08A697838507004A85F6
:106F00008504C205C181793BE1B7EFF26FAE93878B
:106F100001838C4337950000130545E785058CC335
:106F2000EF1020006FF00FAFEFF28FAC0947238610
:106F3000E182F53395359307800873A00780B52665
:106F40006FF04FADEFF22FA9B704002001449384F6
:106F50000402B14983C7C1826364F4006FF0EFAAF1
:106F60000D3DB3073403A697D8439447369763651E
:106F7000E50088C79C43829705041374F40FD9BFBA
:106F8000B707002083A7870937177A001307072060
:106F9000B3D7E70293F7F70F238BF1821307803EF5
:106FA000B387E702239AF1828280EFF26FA42A84EA
:106FB0001165011185451105EFF09F97930700209A
:106FC0007C82371501408D473EC44C00E1471305D4
:106FD00005803EC6EFF04FEC22C837440140B707AA
:106FE00008000C08130504803ECC02CA231E0100D1
:106FF000C936854513050480853105616FF08FA181
:10700000EFF26F9DB7440140AE8932890144938409
:107010000480634524014A856FF02F9F9305000487
:107020002685493965DDB387890083850700268574
:107030000504C205C181BD31E9BF138781801C43AE
:10704000938601C73E95636BD500B70601209386F2
:10705000068063E5A60008C33E858280FD57EDBF2C
:10706000B367B50093F7F70FB1E3EFF26F9837040A
:107070000008AE842A94EFF0AFD313051003EFF0AD
:10708000AFD5A294114963669400EFF00FD4014587
:1070900009A82285EFF02FD863072501EFF0EFD282
:1070A0007D556FF02F9713040410F1BF7D5582803A
:1070B000B367C5008D8BA5E3EFF2EF912A84AE8410
:1070C0007D55A9C53705000832892A94EFF04FCEC7
:1070D00013051003EFF04FD0229991496366240104
:1070E000EFF0AFCE01451DA08C309C202285A2057B
:1070F000DD8DBC20C207CD8FAC30E205DD8DEFF019
:10710000EFD463073501EFF04FCC7D556FF0EF8F73
:1071100011049104E1B77D558280EFF26F8DAE8747
:10712000B7050008AA953E85EF00406601456FF05F
:107130006F8E21C5EFF2CF8B2A847D559DC13749D3
:107140000040B304B40013090940631E940037449F
:10715000004013040440930500042285A13E65DD30
:1071600001456FF02F8B930500084A85A13665DD38
:107170000C204A8505043D36C9BF7D55828019E142
:1071800001458280F5DDEFF2AF8641112AC61385F5
:1071900001C42E84E92E131605014182014511CA4E
:1071A000B2456375C400131604014182138501C4FE
:1071B000452941016FF00F8629712322B112232442
:1071C000C1122326D1122A865412930500100808F2
:1071D000232E11102328E112232AF112232C01134C
:1071E000232E111336C6EF009061635CA000B795A3
:1071F0000000374501401008938545E813050580D8
:1072000061318320C11131618280B707EFBE37E75A
:1072100000E0938707083CC78280411115E9930776
:1072200000035C8285471307000363C5C704580049
:107230003E9781460345F7FF3386D500850608A2B1
:107240007D17E3C9F6FEBE952380050041018280CB
:10725000580081472948A548B376050385070507E7
:1072600093860603A30FD7FEB3560503E3FDA8FAE2
:107270003685DDB75400BE9698A285077DB7EFE24C
:107280003FF79384C1C4C22463668500239604003B
:107290006FE05FF8098C42044180B385A400228628
:1072A0001385C1C4692BC2A4E5B7EFE27FF437951B
:1072B0000000130585E809371384C1C413060002D2
:1072C00081451385C1C4EFE0BFF5B7040400930501
:1072D0000401114613850480893593054401114644
:1072E000138544801D3D93058401114613858480D8
:1072F0002D35104C4C48379500001305C5EA6D3DFF
:10730000379500008547130545ED5CAC75356FE09A
:107310007FF0EFE25FEC9387C1C4DC2F7971638863
:10732000071A1384C1C44A24B145898D99C922958D
:10733000B93501C55E243E954AA45A24954763F8A1
:10734000E718C164AD691569154AFD14938959A5FB
:10735000C17A1309595501A23707FFCC639AE70890
:107360005C40E58F6397270F1945113F3795000063
:107370001305C5F39135004C11464C00135504011B
:10738000693D4C000808EF00B03FB79400009385BA
:10739000C4F50808EF00F03C1355840009464C0082
:1073A0001375F50F9D3D4C000808EF00903B938549
:1073B000C4F50808EF00F03A09464C001375F40FC5
:1073C000A93D4C000808EF00D039B795000093851F
:1073D000C5000808EF00F0380808EF00703BAA85E8
:1073E0000808813B379500000C08130505F6F9A83D
:1073F0003707FFEE639FE7045C40E58F639B27053B
:107400001945B53D379500001305C5F67533379519
:1074100000001305C5F84D33994513850181113BD3
:10742000379500001305C5FA413B85653704040014
:107430009385058013050480253149CD37950000DB
:10744000130585FB953B37950000130545FDAD33CE
:10745000BDA809452D355E24637BFA061C40054511
:1074600033F79700E31837FFB3F757013707FFDD0E
:10747000E394E7EE5C40E58FE39D27FD1945013578
:10748000379500001305C5EF053BB79500009385C0
:1074900005F20808EF00D02E484805464C00B53BE1
:1074A0004C000808EF00F02BB79500009385C5004D
:1074B0000808EF00102B0808EF00902DAA85080897
:1074C0008D394C48379500001305C5F2F5314561FB
:1074D0006FE0BFD3854711460C08130504803EC8F2
:1074E000C13E35F137950000130585FEF131E167A6
:1074F00002C89387F769424763F4E7003933C1BF95
:10750000424705073AC8C5BF5C4113970701458349
:1075100093D617016317D70013D507013D8D058951
:10752000828009458280EFE2BFCC19EDB79600005A
:1075300025669386C6041306060193050003379556
:10754000000013058505DD22634CC000B7960000DE
:107550002566938646071306060193051003C5B7F3
:10756000719A232205000CC112A56FE0BFCAEFE299
:107570003FC82A84513F05C985476316F5000315A6
:1075800084006FE03FC9484013571501420545810B
:107590006375E5003305A740EDB783178400BA97FC
:1075A0003385A740F9BF0145E9BFEFE2DFC24111D2
:1075B00019EDB796000025663795000093860608FA
:1075C000130646029305C004130585058522031999
:1075D00085002A84AE8932C6593F3305A940420549
:1075E000418181440DCD3246AA846373A600B284E2
:1075F0004840C204C1809357150108403306F94042
:107600003E9563D2C4022686CE8549225C4013D7BC
:1076100017012697BE074607BD83D98F5CC0268514
:1076200041016FE09FBECE8595225C4083158400AA
:107630000840C5839D8D3386B440CE95812A58403D
:1076400093570701858B93C7170093960701C1775E
:10765000FD17F98FD58F162413D71701158F55BF36
:10766000EFE27FB7411119EDB79600002566379517
:10767000000093860608130686039305E00B1305A6
:1076800085056D202A84AE8932C6D535AA8431C9D4
:1076900032466375C5001316050141824C40A1674F
:1076A0001389F7FF8581B3F5250103178400C2050F
:1076B0001C40C1810D8FB284BE956358E6024E8591
:1076C000F120584093571700B3F72701A697C20738
:1076D000C183C176B3F7270185068607758FD98FD9
:1076E0005CC0268541016FE05FB23A864E857928FD
:1076F0004840831784000C400581337525014205FD
:1077000041813385A7403386A4404E9541205440A3
:1077100013F716009347170013F7E6FF5D8F162443
:1077200093571700B3F72701958F4DB79387C18003
:107730009C434111328806C6AA882E87C8473686E0
:107740009727000093870795631708009717000095
:107750009387C77A3E88C6869725000093858594CF
:107760001920EF005026397132D436D63EDA3AD895
:1077700042DC46DE9387C1802E86AA85884334107A
:1077800006CE36C69D22F24021618280B3C7A50095
:107790008D8B3307C50081E78D4763EDC700AA874E
:1077A000637EE508942185078505A38FD7FEE3EB6B
:1077B000E7FE828093763500AA8789CA94218507DF
:1077C0008505A38FD7FE93F63700C5BF9376C7FF15
:1077D000138606FE63F0C70683A3050083A2450057
:1077E00083AF850003AFC50083AE050103AE45013D
:1077F00003A3850183A8C5019385450223A07700D3
:1078000003A8C5FF23A2570023A4F70123A6E7017D
:1078100023A8D70123AAC70123AC670023AE170111
:107820009387470223AE07FF75B7904191079105F3
:1078300023AEC7FEE3EBD7FEE3E6E7F6828063F113
:10784000A504B386C500637DD5029345F6FF814745
:10785000FD176393F50082803387F6000348070025
:107860003387C7002A9723000701DDB73387F50068
:1078700014233307F500850714A3E319F6FE82806D
:107880008147E5BF1C46FD171CC663D90700184E8B
:1078900063C5E700A9476393F50095AF1C422E85A9
:1078A0001387170018C28CA38280011122CC26CA2C
:1078B0004AC84EC652C406CE2A89AE893284B30461
:1078C000D6007D5A63149400014501A80C204E8611
:1078D0004A854D3F0504E31745FFF2406244D24418
:1078E0004249B249224A05618280357122CD26CBB8
:1078F0004AC94EC706CF52C556C35AC1DEDEE2DCC6
:10790000E6DAAA89AE843289368409C51C4D99E32A
:10791000EF00103197270000938787816398F40C5C
:1079200083A44900DE24A18BE5C79C48F5C39307D7
:107930000002A304F1029307000302D22305F1021F
:1079400022C6930B5002971A0000938AAA78054C1E
:10795000294B4A841C2099C3639E770DB30C2441A4
:10796000638D0C00E6864A86A6854E853D3FFD5711
:107970006301F51E9256E69636D21C20638B071CD7
:10798000FD571309140002C802CE3ECA02CCA30957
:10799000010482D48345090015465685EF00904DB9
:1079A00013041900C24749E913F7070109C7130770
:1079B0000002A309E10413F7870009C71307B00207
:1079C000A309E104834609001307A002638EE606BB
:1079D000F2474A8481462546182093051400130770
:1079E00007FD6376E60AADCA3ECEBDA0971700003C
:1079F000938707766395F40083A4890025B79717CA
:107A000000009387E770E39FF4F083A4C90019BFD7
:107A1000A6854E855D2D01DD7D55FA406A44DA4428
:107A20004A49BA492A4A9A4A0A4BF65B665CD65CCE
:107A30000D618280050439BF330555413315AC0013
:107A4000C98F3EC82289B9B7324793064700184309
:107A500036C6634707023ACE18209307E002631D3B
:107A6000F70418309307A002631BF702B24709041A
:107A7000138747009C433AC663C107023ECA2DA83C
:107A80003307E04093E727003ACE3EC8F1B7B3870B
:107A9000670385462E84BA9781B7FD57C5B705049D
:107AA00002CA814681472546182093051400130712
:107AB00007FD6376E606F9F20C200D461715000067
:107AC0001305C561EF00103B11CD97170000938798
:107AD000E7601D8D93070004B397A7004245050496
:107AE0005D8D2AC80C201946171500001305455F47
:107AF000130914002304B102EF00D03735C1978772
:107B0000FFFF9387275095E74247B2471377071047
:107B100009CF91073EC69257D2973ED21DBDB3877B
:107B2000670385462E84BA9741B79D07E19BA1075D
:107B3000D5B7780097060000938666D726860C088E
:107B40004E8597000000E7000000FD572A8AE314E5
:107B5000F5FCDE2493F70704E39007EC125575BD9E
:107B6000780097060000938686D426860C084E85FA
:107B7000012AE1BF797156CA9C49BA8A984522D434
:107B800026D24ECE52CC06D64AD05AC85EC6AA8954
:107B90002E84B284368A63D3E700BA879CC0034739
:107BA000340419C385079CC01C4093F7070281C7A2
:107BB0009C4089079CC00329040013796900631A5B
:107BC0000900130B9401FD5B5C449840998F634C52
:107BD000F9041C408346340493F70702B336D000FF
:107BE000A5EB13063404D2854E85829AFD576303B4
:107BF000F5041C4011469840998B54448144639786
:107C0000C700B384E64063D3040081441C44184891
:107C10006354F700998FBE94014969047D5B6398B2
:107C20002405014509A885465A86D2854E85829A43
:107C3000631E75017D55B250225492540259F24987
:107C4000624AD24A424BB24B456182800509ADBFC0
:107C50003307D40013060003A301C70403475404E9
:107C600093871600A2978906A381E7049DBF8546E6
:107C70002286D2854E85829AE30E65FB050945B7BB
:107C8000797122D426D24AD04ECE06D652CC56CACC
:107C90005AC8B689942D930790063289AA842E84F7
:107CA00013863504638DF60263E2D70693078005D9
:107CB0006386F61863EDD700638E062093073004C1
:107CC000638FF60A930A24042301D404D1A09307F6
:107CD00030066386F60A93074006E395F6FE1C40DD
:107CE000084393F6070893054500CDC61C410CC315
:107CF00063D807001307D002B307F040A301E404E0
:107D0000971600009386463E29476DA89307000703
:107D10006382F61663E5D7029307E0066389F618D7
:107D20009307F006E390F6FA0C401C4313F805089D
:107D3000138547006308080608C39C438DA8930772
:107D40005007E383F6FE930780076389F6129307D3
:107D50003007E399F6F61C43D041814593864700EE
:107D600014C383AA07005685EF00D01001C5330560
:107D7000554148C05C401CC8A301040461A81C43D1
:107D8000930A2404938647009C4314C32301F404FC
:107D90008547D5B793F607041C410CC3B1DAC20777
:107DA000C187B9B793F5050408C3C1D99E2313074A
:107DB000F0066386E60E971600009386E6322947A2
:107DC000A30104044C400CC463C5050008406D9930
:107DD00008C099E3B28A89CDB28AB3F5E702FD1AE9
:107DE000B6958C212380BA00B3D5E70263FFE70A7A
:107DF000A147631EF7001C40858B91CB58401C485F
:107E000063C7E70093070003A38FFAFEFD1A33064A
:107E1000564110C84E87CA867000A2852685993BB8
:107E20007D5A631D450B7D55B25022549254025920
:107E3000F249624AD24A424B45618280A382D5040C
:107E4000971600009386462A0C40084313F805084D
:107E50001C411105630D080208C313F7150001C783
:107E600093E505020CC04147A1FF0C4093F5F5FDD9
:107E70000CC0B9B79C4193E707029CC193078007E8
:107E8000A302F404971600009386462775BF13F8E3
:107E9000050408C3E30308FCC207C1837DBF97162E
:107EA000000093866624214721BFAE873DB79441E9
:107EB0001C43CC4913F806081385470063060800E5
:107EC00008C39C438CC339A008C393F606049C43A3
:107ED000F5DA8EA323280400B28A2DBF14485686F3
:107EE000CA8526858299E30045F51C40898B8DE77C
:107EF000B2474844E35AF5F23E853DB7854656867B
:107F0000CA8526858299E30065F3050A5C443247F9
:107F1000998FE345FAFEE9BF014A930A94017D5B1C
:107F2000F5B739713EDA2ED232D436D63AD842DCA1
:107F300046DE9387C18022CC804326CA06CEAA841F
:107F400009C41C4C99E32285E1290C44541026866F
:107F5000228536C6EFF07F99F2406244D244216117
:107F60008280AA8798239386170009EB850503C7AB
:107F7000F5FF8507A38FE7FE75FB8280B687DDB727
:107F8000AA87982185078505A38FE7FE7DFB828060
:107F9000AA87850703C7F7FF6DFF3385A7407D15C7
:107FA00082801971A2DC86DEA6DA3284635B060069
:107FB0009307B0081CC17D55F6506654D65409612C
:107FC00082803686930680202EC42ECCF482814592
:107FD00019C09305F4FFFD572EC82ECEBA862C008B
:107FE000FC83AA84EF00D014FD576355F500930776
:107FF000B0089CC071D0A2472380070075BF93874B
:10800000C1803687B2862E86AA85884359BF011162
:1080100022CC26CA4AC806CE4EC6AA842E893284ED
:1080200001C51C4D91E3ED2E971700009387471073
:108030006317F406C0401C4C1CC45E24A18BC1C352
:108040001C48B5CF1C4808409379F90F1379F90FF4
:108050001D8D5C486346F500A28526856D2425E5C7
:108060001C440505FD171CC41C401387170018C0CD
:10807000238037015C486388A7005E24858B81CB11
:10808000A9476316F900A2852685B52C0DEDF240AF
:1080900062444A85D2444249B249056182809717B9
:1080A00000009387E70A6314F400804469B79717C8
:1080B00000009387E705E310F4F8C044ADBFA28544
:1080C0002685212041D17D59D9B741119387C1809F
:1080D00026C2844322C44AC006C62A892E8489C483
:1080E0009C4C99E326852D2E971700009387470413
:1080F000631BF402C0400317C40093170701C18338
:1081000093F68700ADEA93F6070195EEA547232085
:10811000F900136707045AA47D55B24022449244E3
:108120000249410182809717000093876702631418
:10813000F4008044C9B797170000938767FDE31CDC
:10814000F4FAC0444DBF918B9DC34C5889C9930725
:1081500044046384F5004A85152B232A04025E2417
:108160002322040093F7B7FD5EA41C481CC05E24C4
:1081700093E787005EA41C4899EB5E241307002058
:1081800093F707286385E700A2854A85A1295E2425
:1081900013F717001DC35C4823240400B307F04005
:1081A0001CCC1C480145B5FB8317C40013F7070816
:1081B0002DD793E707045EA485B7898B014791E328
:1081C000584818C4F9BF4111194506C6EF0090255B
:1081D0000545EF00F049DE25011122CC26CA06CE66
:1081E0004AC84EC613F78700AA842E8479EBD8417B
:1081F000634DE000B841634AE0000145F24062444B
:10820000D2444249B2490561828058547DD703A9BE
:1082100004009396370123A0040063DB0606704830
:108220005E24918B99C75C401D8E5C5899C33C407D
:108230001D8E5C540C50814626858297FD575A242A
:10824000631DF5009440F54763E8D706B707402063
:108250008507B3D7D700858BA5C31C48232204000C
:108260001CC09317370163D80700FD576314F5004E
:108270009C4091E368C84C5823A02401BDDD9307BE
:1082800044046384F50026851121232A0402B5B72E
:108290000C500146854626850297FD572A86E31134
:1082A000F5F89C40B5DF75476385E7005947639350
:1082B000E70423A0240191B7136707045AA47D554E
:1082C00035BF83A90501E38A09F203A905008D8B57
:1082D00023A0350133093941014791E3D84918C436
:1082E000E35D20F11C540C50CA864E862685829789
:1082F0006347A0005E2493E707045EA4C9B7AA9968
:108300003309A940F1BF9C49B9CF011122CC06CE57
:108310002A8411C51C4D81E72EC61922B245971734
:1083200000009387E7E0639BF5004C408397C5000E
:1083300095C722856244F240056171BD9717000020
:10834000938707E16394F5000C44CDB797170000BD
:10835000938707DCE39CF5FC4C44C9BFF2406244C0
:1083600001450561828001458280411122C406C613
:108370002A844EA572A5232005002322050023246C
:1083800005002322050623280500232A0500232CA7
:108390000500214681451305C505EFD07FE89717F5
:1083A00000009387C78B5CD0971700009387E78DF9
:1083B0001CD4971700009387C7915CD497170000CF
:1083C0009387279400D01CD8B24022444101828078
:1083D00097050000938565F3A9A2411126C21306F3
:1083E00080069384F5FFB384C4024AC02E8922C458
:1083F00006C6938544073D2E2A8401CD232005001F
:1084000023222501310508C4138684068145EFD057
:108410003FE12285B24022449244024941018280D8
:108420001C4DADE3411106C622C497070000938797
:1084300067FA1CD5938781819C4323240504232656
:108440000504232805046314F50085471CCD2A8400
:108450001D2848C02285052808C422852D2048C42F
:10846000484001469145113708440546A545F53D6C
:1084700048440946C945D53D85471CCCB2402244F5
:1084800041018280828041119387818126C2844389
:108490004AC006C69C4C22C42A8999E326854937DE
:1084A000938484048044DC40FD1763D607009C401D
:1084B000B9CF8440C5BF0317C40039E7C17785072A
:1084C0002322040623200400232204002324040082
:1084D0005CC423280400232A0400232C0400214622
:1084E00081451305C405EFD0BFD3232A0402232CF2
:1084F000040223240404232604042285B2402244D7
:1085000092440249410182801304840671BF91455F
:108510004A85E13588C051FDB1472320F900014467
:10852000E9BF797122D44AD052CC56CA5AC85EC625
:1085300006D626D24ECE2A8AAE8A13048504014975
:10854000054BFD5B09ECB25022544A859254025906
:10855000F249624AD24A424BB24B4561828004449E
:1085600083294400FD1963D409000040E1BFDE24E3
:10857000637BFB008397E40063877701A6855285C0
:10858000829A3369A90093848406E9BF1971A6DA37
:10859000AE848395E500A2DC86DE328463DB0500D1
:1085A000DE2423A0060093F7070885E79307004021
:1085B0001DA0300836C6EF00407AB246E34205FE01
:1085C0007247BD67F98F7977BA9793B717009CC246
:1085D000F1BF930700041CC0F6506654D654014501
:1085E00009618280DE25011122CC06CE26CA4AC846
:1085F000898B2E8489CF930774041CC01CC88547BF
:108600005CC8F2406244D2444249056182807400F1
:108610003000AA84A53FA2452A892685212A19E986
:108620008317C40013F7072069FFF19B93E7270026
:108630005EA4D1B7970700009387C7D99CD45E2466
:1086400008C008C893E707085EA4A2475CC8B24701
:1086500081CF8315E4002685EF00C07211C55E242A
:10866000F19B93E717005EA45E243369F90023169B
:10867000240141BF93F5F50F2A966314C500014507
:1086800082801C21E38EB7FE0505C5BFDDC183A72F
:10869000C5FF411122C406C626C21384C5FF63D399
:1086A00007003E94AA84EF002073938781839C4344
:1086B00081EF2322040023AC81822244B24026852C
:1086C000924441016F006071637EF40014403307EF
:1086D000D4006396E7009843DC43369718C05CC02B
:1086E000D9BFBA87D84319C3E37DE4FE94433386E8
:1086F000D700631F86001040B29694C33386D7001C
:10870000E31DC7FA10435843B29694C3D8C375B754
:108710006375C400B1479CC04DB71040B306C40098
:108720006316D70014435843B29614C058C0C0C350
:1087300069B78280011126CA93843500F19806CE6C
:1087400022CC4AC84EC6A104B14763F1F404B14437
:1087500063E0B4042A8949259387818398433A8446
:1087600031E09387C1839C4391E781454A852D2160
:1087700023AEA182A6854A850521FD5963173507D9
:10878000B1472320F9004A85892D29A0E3D204FCB2
:10879000B1471CC10145F2406244D2444249B2494A
:1087A000056182801C40858F63CE0702AD4663F66B
:1087B000F6001CC03E9404C031A05C4063128702E6
:1087C00023ACF1824A85112D1305B40093074400B0
:1087D00061993307F54061D33A94898F1CC065BF16
:1087E0005CC3CDB722874040A5BF13043500719804
:1087F000E30385FCB305A4404A85792EE31D35FBD0
:1088000041B799E1B2853DB7011122CC06CE26CA07
:108810004AC84EC6328419EA953D0149F240624485
:108820004A85D2444249B24905618280AE84AA8910
:1088300075232689E37485FEA2854E85E53D2A8948
:1088400071DDA6852286EFE07FF4A6854E853D3D4D
:10885000F1B701114AC803A9850022CC52C45AC0FD
:1088600006CE26CA4EC656C22E84328B368A63E89E
:108870002609DE2513F7074849C304408C495848A8
:10888000AA8AB389B4408D44B384E4020947B3C4CF
:10889000E402138716004E9763F3E400BA8493F75B
:1088A0000740B5CFA685568571352A891DE1B147A8
:1088B00023A0FA005E247D5593E707045EA4F240EE
:1088C0006244D2444249B249224A924A024B05616B
:1088D00082800C484E86EFE07FEB5E2493F7F7B77B
:1088E00093E707085EA42328240144C84E99B38463
:1088F00034412320240104C4528963732A0152891C
:1089000008404A86DA85EFE09FF31C440145B387AF
:1089100027411CC41C403E99232024014DB72686C4
:108920005685C5352A8961F10C485685853341B78E
:10893000DE25717126D34AD14ECF06D722D552CD2E
:1089400056CB5AC95EC762C566C393F70708AA89A2
:108950002E89B284B1C39C49A1E39305000436C6B5
:10896000D13B2320A9002328A900B24615E1B14735
:1089700023A0F9007D55BA502A549A540A59FA494D
:108980006A4ADA4A4A4BBA4B2A4C9A4C4D61828069
:1089900093070004232AF90093070002A30CF102B5
:1089A0009307000302DA230DF10236CE930B500237
:1089B000970A0000938A0A72054C294B26841C20D2
:1089C00099C363987709B30C9440638D0C00E686D5
:1089D0002686CA854E85B53DFD57630BF518D256E0
:1089E000E69636DA1C2063850718FD5793041400B9
:1089F00002D002D63ED202D4A301010682DC8C2032
:108A000015465685EFF01FC713841400825721E5E1
:108A100013F7070109C713070002A301E10613F7C3
:108A2000870009C71307B002A301E10694201307CA
:108A3000A002638AE602B2572684814625461820A2
:108A400093051400130707FD6372E6068DC63ED634
:108A50001DA00504ADB7330555413315AC00C98FD2
:108A60003ED0A28469BF724793064700184336CEB2
:108A7000634707023AD618209307E002631DF70404
:108A800018309307A002631BF702F247090413870B
:108A900047009C433ACE63C107023ED22DA833075C
:108AA000E04093E727003AD63ED0F1B7B38767039B
:108AB00085462E84BA9761B7FD57C5B7050402D223
:108AC000814681472546182093051400130707FDAA
:108AD0006376E606F9F20C200D4617050000130533
:108AE000E55FEFF03FB911CD970700009387075F6F
:108AF0001D8D93070004B397A700025505045D8DF3
:108B00002AD00C201946170500001305655D930453
:108B10001400230CB102EFF0FFB525C59777FFFFD6
:108B20009387474E95E70257F2471377071009CF0F
:108B300091073ECED257D2973EDA49B5B387670345
:108B400085462E84BA9741B79D07E19BA107D5B70B
:108B5000780897060000938606D04A860C104E854A
:108B600097000000E7000000FD572A8AE314F5FC97
:108B70008357C9007D5593F70704E39E07DE5255DE
:108B8000DDBB7808970600009386E6CC4A860C1079
:108B90004E85EFF0EF8EC9BF411122C42A842E8585
:108BA00023A601C606C6EFE04FC9FD576317F500BF
:108BB0009387C1C69C4391C31CC0B240224441016B
:108BC0008280FD4763F6B700D9471CC17D5582807E
:108BD0007C41011122CC06CE2E862A8491C71397A0
:108BE0002500BA97984319EB228532C6B520AA858D
:108BF000228562443246F240056115A8854601454A
:108C00006308D700FD566319D700D9471CC0054536
:108C1000F2406244056182802E8523A007000297FE
:108C20000145FDB79387C180AA85884359BF41118B
:108C300022C42A842E85B28523A601C606C63924FD
:108C4000FD576317F5009387C1C69C4391C31CC0B1
:108C5000B240224441018280F1AA411122C42E84F3
:108C60008395E50006C66922634905007C48AA97FA
:108C70007CC8B2402244410182805E247D777D170A
:108C8000F98F5EA4FDB7DE25011122CC26CA4AC8A1
:108C90004EC606CE93F70710AA842E843289B68971
:108CA00091C78395E5008946014609225E247D77B8
:108CB0007D17F98F5EA48315E4006244F240CE86EE
:108CC0004A86B24942492685D244056125A8411108
:108CD00022C42E848395E50006C6C928FD575A2470
:108CE000631AF500FD77FD17F98F5EA4B2402244A8
:108CF000410182808567D98F5EA468C8C5BF83950E
:108D0000E50005A8411122C42A842E85B285368645
:108D100023A601C606C6EFE0AFAEFD576317F50008
:108D20009387C1C69C4391C31CC0B24022444101F9
:108D30008280411122C42A842E8523A601C606C63C
:108D4000F128FD576317F5009387C1C69C4391C373
:108D50001CC0B240224441018280411122C42A84B5
:108D60002E85B28523A601C606C67D28FD5763174A
:108D7000F5009387C1C69C4391C31CC0B2402244F6
:108D800041018280411122C42A842E8523A601C676
:108D900006C67D20FD576317F5009387C1C69C4327
:108DA00091C31CC0B240224441018280411122C4BF
:108DB0002A842E85B285368623A601C606C6692872
:108DC000FD576317F5009387C1C69C4391C31CC030
:108DD000B2402244410182808280828083A7C5FF05
:108DE0001385C7FF63D50700AA959C413E958280F5
:108DF000411122C42A842E85B285368623A601C657
:108E000006C68D20FD576317F5009387C1C69C43A6
:108E100091C31CC0B2402244410182809307800567
:108E200023A6F1C67D5582809307800523A6F1C64F
:108E30007D5582809307800523A6F1C67D558280EB
:108E40009307800523A6F1C601458280930780051C
:108E500023A6F1C67D5582809307800523A6F1C61F
:108E60007D5582809307800523A6F1C67D558280BB
:108E700001A000007379737469636B3A25640D0A6D
:108E800000000000257300003D3D3D2045617379E1
:108E900020426F6F746C6F61646572204150502086
:108EA0005374617274203D3D3D0D0A00437572722A
:108EB000656E742056657273696F6E3A203078253E
:108EC0003038582C20446174653A20307825303889
:108ED000580D0A004150502072656164792C20774A
:108EE000616974696E6720666F7220636F6D6D6172
:108EF0006E64732E2E2E0D0A0000000051756572EF
:108F0000792076657273696F6E20636F6D6D616E27
:108F1000642072656365697665640D0A000000006F
:108F200076657273696F6E3A000000005665727361
:108F3000696F6E3A20256C750D0A000051756572D7
:108F400079206461746520636F6D6D616E64207259
:108F5000656365697665640D0A0000002D000000F8
:108F6000446174653A2025730000000053746172F7
:108F70007420666C61736820636F6D6D616E642030
:108F800072656365697665640D0A0000456E7465F7
:108F900072696E6720626F6F746C6F6164657220B6
:108FA0006D6F64652E2E2E0D0A00000041434B208C
:108FB00073656E740D0A0000457261736520666CFE
:108FC000616720726567696F6E206661696C6564B0
:108FD0000D0A0000577269746520666C616720662F
:108FE00061696C65640D0A00466C61672073657485
:108FF00020746F20424F4F544C4F414445522C2017
:10900000726573657474696E672E2E2E0D0A0000EA
:1090100072745F72696E676275666665725F696EAB
:109020006974000072745F72696E67627566666566
:10903000725F70757400000072745F72696E6762AF
:1090400075666665725F6765740000007262202154
:109050003D204E554C4C00002E2E2F436F6D706FEF
:109060006E656E74732F72696E676275666665727F
:109070002E63000073697A65203E203000000000F6
:10908000726220213D2052545F4E554C4C0000002E
:109090002C2066756E6374696F6E3A2000000000C4
:1090A000617373657274696F6E2022257322206666
:1090B00061696C65643A2066696C652022257322BB
:1090C0002C206C696E65202564257325730A0000C9
:1090D000232D302B20000000686C4C00656667452E
:1090E0004647000030313233343536373839414263
:1090F00043444546000000003031323334353637C2
:109100003839616263646566000000000000000099
:10911000000000000000000000000000000000004F
:10912000000000000000000000000000000000003F
:10913000000000000000000000000000000000002F
:10914000000000000000000000000000000000001F
:10915000000000000000000000000000000000000F
:0C91600000000000000000000000000003
:10916C0000000000000000000102030406070809CB
:10917C0000000000010203040102030406070809B1
:10918C00127300000A000000000000000A6F0000CB
:10919C00E803000000000000000000002C9100001B
:1091AC004C9100000C910000000000000000000039
:1091BC0000000000000000000000000000000000A3
:1091CC000000000000000000000000000000000093
:1091DC000000000000000000000000000000000083
:1091EC000000000000000000000000000000000073
:1091FC00000000000000000000D8B80502040608BA
:10920C00080500203800002055AAFFFE5555000027
:08921C003800002000000000F2
:040000030000600099
:00000001FF
