:040000006F00C0527B
:100004000000000000000000C8020000CA02000056
:10001400000000002A0500000000000000000000AD
:100024002A0500002A05000000000000000000006E
:100034002A05000000000000DA02000000000000B1
:100044002A0500002A0500002A0500002A050000F0
:100054002A0500002A0500002A0500002A050000E0
:100064002A0500002A0500002A0500002A050000D0
:100074002A0500002A0500002A0500002A050000C0
:100084002A0500002A0500002A0500002A050000B0
:100094002A0500002A0500002A0500002A050000A0
:1000A4002A0500002A0500002A0500002A05000090
:1000B4002A0500002A0500002A0500002A05000080
:1000C4002A0500002A0500002A0500002A05000070
:1000D4002A0500002A050000D20E00002A050000AF
:1000E4002A0500002A0500002A0500002A05000050
:1000F4002A0500002A0500002A0500002A05000040
:10010400000000002A0500002A0500002A0500005E
:100114002A0500002A0500007A0D00002A050000C7
:100124002A0500002A0500002A0500002A0500000F
:100134002A0500002A0500002A0500002A050000FF
:100144002A0500002A0500002A0500002A050000EF
:100154002A0500002A0500002A0500002A050000DF
:100164002A0500002A0500002A0500002A050000CF
:100174002A0500002A0500002A0500002A050000BF
:100184002A0500002A0500002A0500002A050000AF
:100194002A0500002A0500002A0500002A0500009F
:1001A400000000000000000000000000000000004B
:0C01B4000000000000000000000000003F
:1001C000397101436EC619A0397141536AC866CAB4
:1001D00062CC5ECE19A0397101535AD056D252D496
:1001E0004ED64AD826DA22DC06DE3301614082820E
:1001F00041114AC026C222C406C68282B24D4101C4
:10020000024D924C224CB24B4101024B924A224A7F
:10021000B2494101024992442244B24041018280E4
:100220003D432A876373C3029377F700BDEFADE5C3
:10023000937606FF3D8ABA960CC34CC30CC74CC7D5
:100240004107E36BD7FE11E28280B306C3408A0602
:100250009702000096966780A6002307B700A306C2
:10026000B7002306B700A305B7002305B700A30412
:10027000B7002304B700A303B7002303B700A3020A
:10028000B7002302B700A301B7002301B700A30002
:10029000B7002300B700828093F5F50F9396850091
:1002A000D58D93960501D58D61B79396270097025A
:1002B000000096968682E78086FA9680C1171D8F89
:1002C0003E96E374C3F8A5B701A0B707EFBE37E7C2
:1002D00000E0938707083CC701A01968028801A0C5
:1002E000EFF21FF109454521112AEF00B04F71656A
:1002F00013050520EF001055EF005049EF00D04ADC
:10030000F5BFB71702409843B706FFF041111367D6
:10031000170098C3D84337060200758FD8C3984397
:10032000B706F7FEFD16758F98C39843B706FCFF16
:10033000FD16758F98C3D843B70601FFFD16758F5C
:10034000D8C39843B70600ECFD16758F98C33707DE
:10035000FF0098C723A6070202C402C69843C166DD
:10036000558F98C3B716024005679C42F18F3EC671
:10037000A24785073EC4B24781E7A247E397E7FE5D
:10038000B71702409C431397E7006357070685475A
:100390003EC632478547631FF704B7170240D8436C
:1003A000B706C1FFFD16D8C3D843D8C3D8431367D7
:1003B0000740D8C3D843758FD8C3D843B7062900A0
:1003C000558FD8C39843B7060001558F98C39843FB
:1003D00093166700E3DD06FED843B7160240719B13
:1003E000D8C3D84313672700D8C32147DC42B18B59
:1003F000E39EE7FE4101828002C661BFB71602405C
:10040000D842B70700201146318B9387070963054F
:10041000C70021466308C70237177A001307072071
:1004200098C337170240584311839376F700370774
:100430000020130707003697142398433357D7003B
:1004400098C38280D842D442416649833D8BF18E65
:100450001306270015CF3D47630FE6024147630FA0
:10046000E602454781456313E6004146A1E237476E
:10047000024003270780418B0DC737177A00130707
:1004800007203306C70290C3C9DD9843058349BFDF
:1004900081454946E1BF85453546C9BF81453D4651
:1004A000F1B737173D0013070790E1BF371502403A
:1004B00058559316F700585563DF060411833D8B9A
:1004C0009306170037177A00130707203357D70210
:1004D00098C35455A182BD8A8DE295463307D70251
:1004E000058398C337170240585794433D8B05073F
:1004F00033D7E60298C3984369B705456394A600CD
:10050000E546E9BF3D456396A600D1463387E6023E
:10051000C9BF8906E5BF3D8B9306170037177A00E0
:10052000130707203357D702F1B701A09701002026
:1005300093814136170101201301C1AC173500002A
:100540001305852A970500209385C5AB1386018284
:1005500063FAC5008322050023A05500110591050B
:10056000E3EAC5FE13850182938541466377B500B2
:10057000232005001105E36DB5FEFD42739002BC1A
:10058000AD4273904280B7620000938282087390FC
:10059000023097020000938222A793E23200739008
:1005A0005230EFF01FD6970200009382A2D37390CF
:1005B000123473002030B70767453727024093870E
:1005C00037125CC3B797EFCD9387B79A5CC382802D
:1005D000372702401C4B93E707081CCB8280B727C4
:1005E0000240C8C78280372702405C470545858B9B
:1005F00091E748474189133515000D058280EFF2D8
:100600003FBF2A848544C5376318950019E0154516
:1006100029A0D13F7D14CDBF7DD8EDBEEFF2BFBB89
:1006200041112A891565AE8402C69149C93F631BF1
:100630003503372402401C48156593E717001CC892
:1006400093970401C1832310F900553F63193501C5
:1006500009094AC6B247C180156586A34D371C48B3
:10066000F99B1CC8410155B6B7270240984BB70605
:100670000200137505F0558F98CBC8CB984B1367C4
:10068000070498CBD847058B75FF984B8176FD16EC
:10069000758F98CB8280E1777D8DB7270240984B8C
:1006A000B7060400558F98CBC8CB984B1367070447
:1006B00098CBD847058B75FF984BB706FCFFFD1606
:1006C000758F98CB82809C4513F7070113F8F700CC
:1006D00001C7D8413368E8008E2113F7F50F39C3FD
:1006E00018418146854E3D4F930F8002930280044E
:1006F000214E3396DE00B3F8C500631116039398BC
:10070000260033131F011343F3FF3377E300B318BD
:10071000180133E7E800639FF70550C98506E39A9F
:10072000C6FD18C11307F00F6375B7045441214685
:10073000854E3D4F930F800293028004414EB39843
:10074000CE0033F715016392E80213172600011754
:100750003313EF001343F3FFB376D3003317E800EE
:10076000D98E639DF701232A15010506E319C6FDFD
:1007700054C18280E39457FA10C94DB7E39757FEEE
:1007800023281501DDB723A0A182828003A701825F
:10079000894710216311F70214318D4763EDD700AB
:1007A0003C219A0637E700E09607D58F93F7F70FBD
:1007B00032972300F74054410547935756003317AB
:1007C000C70089CA938707048A07B7E600E0B6978F
:1007D00098C3828093870706B7E600E08A07B6973A
:1007E00098C30F1000008280B71702409843B706E5
:1007F000FFF81367170098C3D843758FD8C3984381
:10080000B706F7FEFD16758F98C39843B706FCFF31
:10081000FD16758F98C3D843B70681FFFD16758FF7
:10082000D8C39843B70600ECFD16758F98C33707F9
:10083000FF0098C723A607028280371702405C4357
:100840009146B18B6385D700A1466382D706B7175F
:100850007A00938707201CC1371602405C42370795
:100860000020130707019183BD8BBA9794231C4185
:10087000B3D7D7005CC15442A1829D8ABA96942214
:10088000B3D6D70014C55442AD829D8A369718233B
:10089000B3D7E7005CC55842398393763700138796
:1008A000418036971823B3D7E7021CC982805C4386
:1008B0005843C166C983758FB7F6FF1F83A6C670FC
:1008C000BD8B89071396160163480600C54601468D
:1008D0006392D702C94739A88946638FD702BD46BC
:1008E000638ED702C146638ED702C5460146639325
:1008F000D700C1471DEF3747024003270780418BD0
:1009000005C737177A0013070720B307F7021CC182
:1009100021D61C41858381B701466DBF0546B54789
:10092000D1BF0146BD47F9B737173D001307079000
:10093000E9BFB7150240D8559316F700D85563DFC5
:10094000060411833D8B9306170037177A001307AF
:1009500007203357D70218C1D455A182BD8A8DE232
:1009600095463307D702058318C1371702405857F9
:1009700014413D8B050733D7E60218C1184171B702
:1009800085456394B600E546E9BFBD456396B6006C
:10099000D1463387E602C9BF8906E5BF3D8B930682
:1009A000170037177A00130707203357D702F1B71C
:1009B00099C5371702401C4F5D8D08CF8280B7174D
:1009C0000240984F1345F5FF798D88CF828099C5F5
:1009D000371702405C4F5D8D48CF8280B7170240C9
:1009E000D84F1345F5FF798DC8CF828099C5371749
:1009F00002405C475D8D48C78280B7170240D847E8
:100A00001345F5FF798DC8C7828099C53717024015
:100A10001C4B5D8D08CB8280B7170240984B134565
:100A2000F5FF798D88CB828037F7FF1F032747704A
:100A30001E21914611833D8BC2077117C18363E666
:100A4000E60237370140930607C0630ED50013074F
:100A50000740630AE50037570140930607C0630467
:100A6000D500631AE5000967D98F373701401307AE
:100A700007C06302E50437070040630EE502130771
:100A80000740630AE50237170040930607806304B6
:100A9000D502130707C06300E5023737014013078B
:100AA0000740630AE50037570140930607C0630417
:100AB000D5006318E50093F7F7F8BA21C207C183A0
:100AC000D98F37170040630CE50013070740630810
:100AD000E50093F7F7CFFA21C207C183D98F1EA192
:100AE000DE215EB59E211EB5B7370140138707C0D2
:100AF000630EE50093870740630AF500B75701408E
:100B0000138707C06304E5006314F5009C251EB934
:100B100085475EA982801E2189C593E717001EA123
:100B20008280C207C183F99BC207C183CDBF5E2506
:100B300001C6DD8D4EA5828093C5F5FFFD8DDDBF1D
:100B40001E294A25ED8F4205418189C76D8D3335B8
:100B5000A00082800145828093C5F5FFC205C18156
:100B60000EA98280EFF2CFE8B74701409387078054
:100B7000631AF50085451165953D81451165BD35C3
:100B80006FF04FE9B747004093870740631BF500BC
:100B9000854537050200953D814537050200B5358D
:100BA000C5B7B757004013870780631AE50085452E
:100BB00037050400993D814537050400CDB71387FB
:100BC00007C0631AE5008545370508003D3D8145AE
:100BD00037050800E9B7631AF500854537051000A9
:100BE0002D358145370510005DBFB72700401387BD
:100BF0000780631AE50085451305000439358145F2
:100C00001305000469BF138707C0631AE500854513
:100C100013050008DD3B81451305000849B7E311C2
:100C2000F5F6854513050010CD33814513050010F9
:100C3000BDB7EFF2EFDB1629F577FD17F58FF6213B
:100C4000DA257971D58F1EA95625FD779387379FB1
:100C5000F58FD6212A842EC6D58F9625D58FB62519
:100C6000D58F5EA55E29C207C18393F7F7CFD98FD1
:100C70005EA96808D936B747014093870780B24517
:100C8000631EF402A2576547B387E70298419306B3
:100C900040060A07B3D7E70233D7D702B3F7D70224
:100CA0001207920793872703B3D7D702BD8BD98F3B
:100CB000C207C1831EA445616FF0CFD59257E1B73B
:100CC0008967938707581CC1B7070C0023220500CA
:100CD0001CC523160500828091C55E250967D98F42
:100CE0005EA582805A25F977FD17F98FD5BF13F7D6
:100CF000F50F85471583B395B7006319F700930780
:100D0000C500984301CED98D8CC382808946930754
:100D10004501E318D7FE93070501E5B793C5F5FF35
:100D2000F98DDDB793F5F51F4EA182804A21137529
:100D3000F51F82800A216D8D3335A000828013F764
:100D4000F50F85461583B397B6006311D7025A2570
:100D5000F98F1A2101454207418381CB0545A181C5
:100D6000B315B5006D8F3335E0008280894663147A
:100D7000D7001A29F1BF5A29E1BF85453715004030
:100D8000C13385476317F500938741829843050770
:100D900098C3854537150040C13373002030EFF20A
:100DA0002FC501118545414502C602C802CA02CCC1
:100DB000231E01002939B707002083A707093747F9
:100DC0000F0013070724B3D7E7024C08371500407C
:100DD000231B0100FD17FC829307703E3ECCA93116
:100DE0008545371500408D3B930760047C86854719
:100DF0005C87680085473EC8513A054685453715EA
:100E000000403533854537150040313305616FF0BB
:100E10006FC003A541828280EFF28FBD7971854555
:100E2000114502CA02CC02CE02D002D202D402D6AE
:100E300002C602C8B53E854537050200493E9147C6
:100E4000FC82371401408D473ECC4C08E147130526
:100E500004803ECEEFF03F87A1474C08FC8213058B
:100E600004809147374400403ECEEFF0DF85130504
:100E70000440CD390810A935F167938707203ED08B
:100E80000C10B7070C00130504403ED402D2231601
:100E90000102453305461305044093055052813D38
:100EA0008545130504400D3D930760137C8668005B
:100EB00085473EC823070100EFF05F8D1306004011
:100EC0009385C1831385C1C3EF00302D45616FF059
:100ED0006FB4011122CE37440040930550521305E0
:100EE0000440B13D19CD130504408935C887153735
:100EF00023A4A18205469305F1001385C1C3EF0029
:100F000010327244056173002030130101DC232884
:100F100021212324C1222326D1222E8634142A897A
:100F2000930500200808232C8120232E1120232A3A
:100F300091202328E122232AF122232C0123232E8E
:100F4000112336C6EF10E04A7D54634605002A841B
:100F50008144639E840022858320C1210324812152
:100F60008324412103290121130101248280835715
:100F7000090093F70708E5DF1C08A697838507009B
:100F80004A858504C205C181713BE1B7EFF24FA6E6
:100F900005472386E182213541359307800873A0F8
:100FA000078095216FF00FA7EFF2EFA2B7040020A2
:100FB000014493840402B14983C7C1826364F4008D
:100FC0006FF0AFA4B935B3073403A697D84394475D
:100FD00036976365E50088C79C43829705041374C0
:100FE000F40FD9BFB707002083A7070937177A0086
:100FF00013070720B3D7E70293F7F70F2388F1828F
:101000001307803EB387E7022397F1828280B7F708
:1010100000E0D8438146799BD8C303D7E1823306E9
:10102000A70290CBD4CB98431367070198C398438A
:101030001367170298C3D843058B75DF9843799BD4
:1010400098C38280EFF2CF9A2A84116501118545F9
:101050001105EFF0FF95930700207C8237150140C2
:101060008D473EC44C00E147130505803EC6EFF0B6
:101070008FE522C837440140B70708000C08130564
:1010800004803ECC02CA231E010065368545130547
:101090000480993105616FF0EF97EFF2CF93B74479
:1010A0000140AE8932890144938404806345240160
:1010B0004A856FF08F95930500042685A53965DD77
:1010C000B38789008385070026850504C205C18191
:1010D0009139E9BF138781801C43938641463E9531
:1010E000636BD500B70601209386068063E5A600F2
:1010F00008C33E858280FD57EDBFB367B50093F707
:10110000F70FA5EBEFF22F8D370400082A94B38474
:101110008500EFF04FCA130510032169EFF02FCCC3
:101120007D1963759400B377240181E72289A16951
:1011300019A82285EFF04FD313040410DDB74A85B8
:10114000EFF06FD54E99B3872441E3FA37FF33852B
:101150008440E1777D8D2A9463679400EFF04FC758
:1011600001456FF08F8A2285EFF00FD01304041031
:10117000E5B77D558280B367C5008D8BA5E3EFF29F
:101180008F852A84AE847D55A9C53705000832892C
:101190002A94EFF04FC213051003EFF04FC42299C9
:1011A000914963662401EFF0AFC201451DA08C3068
:1011B0009C202285A205DD8DBC20C207CD8FAC30DE
:1011C000E205DD8DEFF08FC563073501EFF04FC00D
:1011D0007D556FF08F8311049104E1B77D558280B6
:1011E000EFF20F81AE87B7050008AA953E85EF00A4
:1011F000302101456FF00F8221C5EFE27FFF2A8485
:101200007D559DC137490040B304B400130909401E
:10121000631E940037440040130404409305000407
:101220002285093E65DD01456FE0DFFE930500087C
:101230004A85093665DD0C204A850504E534C9BFB9
:101240007D55828019E101458280F5DDEFE25FFA8C
:1012500041112AC61385C1C32E84EF00807813166E
:1012600005014182014509CEB2456375C4001316DC
:10127000040141821385C1C3EF00D00542054181BD
:1012800041016FE03FF929712322B1122324C112D9
:101290002326D1122A865412930500100808232E03
:1012A00011102328E112232AF112232C0113232EDB
:1012B000111336C6EF10E013635CA000B7350000D1
:1012C000374501401008938585261305058035397B
:1012D0008320C11131618280EFE29FF19307800882
:1012E00073B007800F100000014685453715004098
:1012F000EFF0FF83814537150040EFF0DF81374481
:10130000004001461305044093055052EFF03F9E04
:10131000130504408145EFF03F9CB7F700E023A0A0
:10132000070023A2070037E400E08147FD5621466D
:101330001397270022972320D7182320D728850723
:10134000E398C7FE81451145EFF08FE681452145C1
:10135000EFF00FE6814537050200EFF04FE78145DA
:101360004145EFF0CFE6EFF02FC829454D319167A9
:101370002320F4180F1000002320F4282320F41059
:1013800013078008732007802320F42001A0B707EB
:10139000EFBE37E700E0938707083CC78280EFE2A3
:1013A0003FE5370500209304854D0566330496001C
:1013B000034954811306868181451305854DEFE06D
:1013C0003FE6996723ACF47EA30A24816FE09FE493
:1013D000EFE21FE2B70700209384874D03D4044057
:1013E00063668500239004406FE0DFE2098C4204CD
:1013F0004180B385A40022861385874DEF00700BD2
:1014000023908440D5B7EFE21FDD37350000130588
:10141000C526953D69373704040011469385C144BC
:1014200013050480753B11469385014513054480DF
:10143000453B1146938541451305848037140020B0
:1014400045331304844D8326C4800326848083257A
:101450004480373500001305C528353503274480FF
:101460003719002085471309894D6318F700373570
:1014700000001305C52B013D65A0373500009964B8
:101480001305452E093583A90400C04037350000F7
:10149000CE85228613050530FD33B7970300B304CC
:1014A00094409387F77F63FC97003735000013055E
:1014B0004532D13B37350000130545436DBF0588E4
:1014C00011C4373500001305C533E5B7B7E739E375
:1014D000938797336399F90037350000CE8513055C
:1014E00085355533C1BF832549800947639EE50093
:1014F000373500001305053979331965F13B373568
:1015000000001305053B85BF6397F50037350000E4
:101510001305853D8DB73735000013050540A5330C
:101520003735000085471305C545A30AF980A13B5F
:101530006FE0BFCDEFE2DFC8B70A002013878A4D06
:101540008567BA9783C7578101116389071413848C
:101550008A4D035504409305004037190020898DBA
:101560001309894D89C92295F13911C58357044062
:101570003E952310A4400327098189476307F70498
:10158000416BAD6B7D1B938B5BA5370D0020035723
:101590000440A94763F4E710294A930C503F93098C
:1015A000500503570440637BEA0E83A78A4D054527
:1015B000B3F767016399770144307C20A204DD8C86
:1015C00063F49C3009452935E9BF03570440B5470A
:1015D00063F6E70CC164AD69156AFD14938959A5DA
:1015E000C17B370CFFFD130A5A55354B83A78A4D33
:1015F0000545E58F639F37091C44B3F7FB006399EA
:1016000087095C44E58F639547093E2024207830A4
:1016100093998700A183B3E7F900939907013C30C0
:10162000E2044207C207DD8C5C30394593D90901D9
:10163000DD8C5C20A207DD8C7E20139A8700A183BD
:10164000B367FA00139A07017C20135A0A01E207D4
:10165000D98F18340024D98F22045D8C953B3735FF
:1016600000002286A685130545483139832A098161
:1016700089476388FA0237350000D6851305854B04
:1016800019313735000013050559F53E093B39A0DE
:1016900009453D3B83570440E36AFBF405616FE075
:1016A000FFB585653709040093850580130509801A
:1016B000EFF0BFA401CD373500001305054EE1362C
:1016C000373500001305C54F7D3E65BF11466C08D8
:1016D0001305098056CEEFF01FAA7DF193D7840041
:1016E00011466C0813054980230E9100A30EF100EA
:1016F000231F3101EFF03FA861F593578400114695
:101700006C0813058980230E8100A30EF100231FAE
:101710004101EFF05FA64DF5373500002286A68522
:101720001305C5518D36994513850181EFF0DFAC66
:101730003735000013058555B936E16702CE93872A
:10174000F769724763F9E70037350000130545561E
:101750001D3E3539A1B7724705073ACEDDB737359B
:1017600000001305855E05369967232CF47E8547B6
:1017700023000980230AF9808346098085472328AE
:10178000F9800325847FB38796008D07F19B370787
:101790000400AA97130707806377F7003735000026
:1017A0001305855FE9A2B9CC638E061022878149B3
:1017B0008D468347098063E6F60E05076398990C0A
:1017C000B384344193F7C4FF85C70325847F938591
:1017D000A1043E86CE953EC6EFF0FF99631B051827
:1017E000B2470327847FBE993E97232CE47E9D8CCD
:1017F00091C89385A1042686CE951385414409217D
:1018000023009980420AA20C336A9A01B36DBA018F
:1018100063980D06834409809DCC268693854144B8
:1018200068088329847FE92E7C081146058E93057C
:10183000F00F33859700EFE0BF9E11466C084E8590
:10184000EFF07F93631705128327847F23000980BD
:101850009107232CF47E89472328F9808327847FEE
:10186000E9753735000013050561BE95230A098027
:10187000EFF07FA13735000013054563EFF0BFA0FF
:10188000994513850181EFF03F9711B31386170037
:101890002300C98003461740A2978509238EC77E7F
:1018A00009BF1147E39EE7F0114693854144EFF0ED
:1018B0009F8C61E18327847F230009809107232C7B
:1018C000F47EFDBD8149EDBD1388B400E36807DDFA
:1018D0009386A400E3F806CF93857400B307B400A1
:1018E0009823B30794009C27220715465D8F8147F4
:1018F0003305C40008210506AA97C207C183E3691E
:10190000B6FEE311F7CCB30794009C37E39C37CBCA
:10191000A2969C22E39837CB034A2400834C3400E0
:10192000834D440089C826869305FD4D1385A10487
:1019300042C6F9243248131508014181EFF05FA92E
:1019400083474981E39A07E2373500001305055CB8
:10195000EFF07F93B7A50300938505801965EFF03D
:10196000CFF9E30E05DE373500001305855DEFF096
:101970009F91373500001305456501BB5C41139706
:101980000701458393D617016317D70013D50701C5
:101990003D8D0589828009458280EFE27F8519EDC2
:1019A000B73600000D669386466C1306866893056D
:1019B0000003373500001305056DDD22634CC000C0
:1019C000B73600000D669386C66E130686689305CB
:1019D0001003C5B7719A232205000CC112A56FE050
:1019E0007F83EFE2FF802A84513F05C98547631654
:1019F000F500031584006FE0FF814840135715017F
:101A0000420545816375E5003305A740EDB78317AF
:101A10008400BA973385A740F9BF0145E9BFEFE2DB
:101A20008FFB411119EDB73600000D663735000008
:101A30009386866F1306C6699305C0041305056D6A
:101A40008522031985002A84AE8932C6593F3305A1
:101A5000A9404205418181440DCD3246AA84637379
:101A6000A600B2844840C204C180935715010840C3
:101A70003306F9403E9563D2C4022686CE854922BC
:101A80005C4013D717012697BE074607BD83D98F41
:101A90005CC0268541016FE04FF7CE8595225C4002
:101AA000831584000840C5839D8D3386B440CE9550
:101AB000812A584093570701858B93C71700939647
:101AC0000701C177FD17F98FD58F162413D717019A
:101AD000158F55BFEFE22FF0411119EDB736000019
:101AE0000D66373500009386866F1306066B9305E7
:101AF000E00B1305056D6D202A84AE8932C6D535FD
:101B0000AA8431C932466375C500131605014182A6
:101B10004C40A1671389F7FF8581B3F525010317B1
:101B20008400C2051C40C1810D8FB284BE956358EC
:101B3000E6024E85F120584093571700B3F727016E
:101B4000A697C207C183C176B3F72701850686072A
:101B5000758FD98F5CC0268541016FE00FEB3A8607
:101B60004E8579284840831784000C4005813375E1
:101B70002501420541813385A7403386A4404E9517
:101B80004120544013F716009347170013F7E6FF60
:101B90005D8F162493571700B3F72701958F4DB724
:101BA0009387C1809C434111328806C6AA882E873C
:101BB000C847368697270000938747B56317080004
:101BC000972700009387C7913E88C6869725000017
:101BD0009385C5B41920EF00501E397132D436D622
:101BE0003EDA3AD842DC46DE9387C1802E86AA854B
:101BF0008843341006CE36C69D22F2402161828091
:101C0000B3C7A5008D8B3307C50081E78D4763ED12
:101C1000C700AA87637EE508942185078505A38F01
:101C2000D7FEE3EBE7FE828093763500AA8789CA68
:101C3000942185078505A38FD7FE93F63700C5BF8E
:101C40009376C7FF138606FE63F0C70683A30500DD
:101C500083A2450083AF850003AFC50083AE0501B5
:101C600003AE450103A3850183A8C5019385450201
:101C700023A0770003A8C5FF23A2570023A4F701E0
:101C800023A6E70123A8D70123AAC70123AC670035
:101C900023AE17019387470223AE07FF75B7904124
:101CA0009107910523AEC7FEE3EBD7FEE3E6E7F627
:101CB000828063F1A504B386C500637DD502934598
:101CC000F6FF8147FD176393F50082803387F600A6
:101CD000034807003387C7002A9723000701DDB7B1
:101CE0003387F50014233307F500850714A3E319A0
:101CF000F6FE82808147E5BF1C46FD171CC663D9EE
:101D00000700184E63C5E700A9476393F500D5ADFA
:101D10001C422E851387170018C28CA382800111E4
:101D200022CC26CA4AC84EC652C406CE2A89AE89DB
:101D30003284B304D6007D5A63149400014501A88F
:101D40000C204E864A854D3F0504E31745FFF240BF
:101D50006244D2444249B249224A056182803571C7
:101D600022CD26CB4AC94EC706CF52C556C35AC14B
:101D7000DEDEE2DCE6DAAA89AE843289368409C581
:101D80001C4D99E3EF001029972700009387C7A106
:101D90006398F40C83A44900DE24A18BE5C79C481A
:101DA000F5C393070002A304F1029307000302D2D4
:101DB0002305F10222C6930B5002972A0000938A52
:101DC000EA98054C294B4A841C2099C3639E770DE1
:101DD000B30C2441638D0C00E6864A86A6854E85A9
:101DE0003D3FFD576301F51E9256E69636D21C2004
:101DF000638B071CFD571309140002C802CE3ECAAC
:101E000002CCA309010482D48345090015465685F6
:101E1000EF00904513041900C24749E913F7070181
:101E200009C713070002A309E10413F7870009C7D4
:101E30001307B002A309E104834609001307A002B7
:101E4000638EE606F2474A848146254618209305AC
:101E50001400130707FD6376E60AADCA3ECEBDA0A7
:101E600097270000938747966395F40083A4890021
:101E700025B79727000093872791E39FF4F083A469
:101E8000C90019BFA6854E851D2D01DD7D55FA407F
:101E90006A44DA444A49BA492A4A9A4A0A4BF65BE2
:101EA000665CD65C0D618280050439BF33055541FF
:101EB0003315AC00C98F3EC82289B9B732479306A3
:101EC0004700184336C6634707023ACE18209307E7
:101ED000E002631DF70418309307A002631BF702AA
:101EE000B2470904138747009C433AC663C10702FF
:101EF0003ECA2DA83307E04093E727003ACE3EC8FC
:101F0000F1B7B387670385462E84BA9781B7FD572B
:101F1000C5B7050402CA81468147254618209305A6
:101F20001400130707FD6376E606F9F20C200D4650
:101F30001725000013050582EF00103311CD9727F8
:101F40000000938727811D8D93070004B397A70096
:101F5000424505045D8D2AC80C201946171500005E
:101F60001305857F130914002304B102EF00D02F5D
:101F700035C197E7FFFF9387E70895E74247B247E8
:101F80001377071009CF91073EC69257D2973ED2DA
:101F90001DBDB387670385462E84BA9741B79D0759
:101FA000E19BA107D5B7780097060000938666D716
:101FB00026860C084E8597000000E7000000FD57BC
:101FC0002A8AE314F5FCDE2493F70704E39007EC78
:101FD000125575BD780097060000938686D4268634
:101FE0000C084E85012AE1BF797156CA9C49BA8A0C
:101FF000984522D426D24ECE52CC06D64AD05AC8C4
:102000005EC6AA892E84B284368A63D3E700BA8773
:102010009CC00347340419C385079CC01C4093F738
:10202000070281C79C4089079CC0032904001379DB
:102030006900631A0900130B9401FD5B5C4498402E
:10204000998F634CF9041C408346340493F70702CC
:10205000B336D000A5EB13063404D2854E85829AA0
:10206000FD576303F5041C4011469840998B544476
:1020700081446397C700B384E64063D3040081447E
:102080001C4418486354F700998FBE9401496904B1
:102090007D5B63982405014509A885465A86D2854B
:1020A0004E85829A631E75017D55B250225492541A
:1020B0000259F249624AD24A424BB24B4561828090
:1020C0000509ADBF3307D40013060003A301C704FD
:1020D0000347540493871600A2978906A381E70457
:1020E0009DBF85462286D2854E85829AE30E65FB8A
:1020F000050945B7797122D426D24AD04ECE06D6EC
:1021000052CC56CA5AC8B689942D93079006328984
:10211000AA842E8413863504638DF60263E2D70603
:10212000930780056386F61863EDD700638E06205B
:1021300093073004638FF60A930A24042301D4041E
:10214000D1A0930730066386F60A93074006E3950D
:10215000F6FE1C40084393F6070893054500CDC6DC
:102160001C410CC363D807001307D002B307F0402B
:10217000A301E404971600009386865E29476DA8A4
:10218000930700076382F61663E5D7029307E0061C
:102190006389F6189307F006E390F6FA0C401C43A7
:1021A00013F80508138547006308080608C39C4315
:1021B0008DA893075007E383F6FE93078007638992
:1021C000F61293073007E399F6F61C43D041814598
:1021D0009386470014C383AA07005685EF00D008F2
:1021E00001C53305554148C05C401CC8A301040427
:1021F00061A81C43930A2404938647009C4314C39C
:102200002301F4048547D5B793F607041C410CC39A
:10221000B1DAC207C187B9B793F5050408C3C1D9BC
:102220009E231307F0066386E60E9716000093863A
:1022300026532947A30104044C400CC463C5050080
:1022400008406D9908C099E3B28A89CDB28AB3F586
:10225000E702FD1AB6958C212380BA00B3D5E702B8
:1022600063FFE70AA147631EF7001C40858B91CBF3
:1022700058401C4863C7E70093070003A38FFAFE8A
:10228000FD1A3306564110C84E87CA867000A285D3
:102290002685993B7D5A631D450B7D55B2502254CE
:1022A00092540259F249624AD24A424B45618280B5
:1022B000A382D504971600009386864A0C400843F3
:1022C00013F805081C411105630D080208C313F734
:1022D000150001C793E505020CC04147A1FF0C4062
:1022E00093F5F5FD0CC0B9B79C4193E707029CC17B
:1022F00093078007A302F40497160000938686478D
:1023000075BF13F8050408C3E30308FCC207C183C3
:102310007DBF971600009386A644214721BFAE8754
:102320003DB794411C43CC4913F806081385470078
:102330006306080008C39C438CC339A008C393F606
:1023400006049C43F5DA8EA323280400B28A2DBF2D
:1023500014485686CA8526858299E30045F51C40B7
:10236000898B8DE7B2474844E35AF5F23E853DB785
:1023700085465686CA8526858299E30065F3050A57
:102380005C443247998FE345FAFEE9BF014A930A5C
:1023900094017D5BF5B71971A2DC86DEA6DA328482
:1023A000635B06009307B0081CC17D55F650665468
:1023B000D654096182803686930680202EC42ECCA6
:1023C000F482814519C09305F4FFFD572EC82ECE27
:1023D000BA862C00FC83AA84EF00F014FD576355E5
:1023E000F5009307B0089CC071D0A2472380070076
:1023F00075BF9387C1803687B2862E86AA858843AB
:1024000059BF011122CC26CA4AC806CE4EC6AA849C
:102410002E89328401C51C4D91E3ED2E97170000E3
:10242000938787386317F406C0401C4C1CC45E2495
:10243000A18BC1C31C48B5CF1C4808409379F90F44
:102440001379F90F1D8D5C486346F500A28526853A
:102450006D2425E51C440505FD171CC41C4013878D
:10246000170018C0238037015C486388A7005E24EA
:10247000858B81CBA9476316F900A2852685B52CEB
:102480000DEDF24062444A85D2444249B2490561A9
:10249000828097170000938727336314F4008044E9
:1024A00069B7971700009387272EE310F4F8C0440C
:1024B000ADBFA2852685212041D17D59D9B74111D3
:1024C0009387C18026C2844322C44AC006C62A8993
:1024D0002E8489C49C4C99E326852D2E97170000E5
:1024E0009387872C631BF402C0400317C400931723
:1024F0000701C18393F68700ADEA93F6070195EED5
:10250000A5472320F900136707045AA47D55B2405C
:102510002244924402494101828097170000938728
:10252000A72A6314F4008044C9B797170000938763
:10253000A725E31CF4FAC0444DBF918B9DC34C58B2
:1025400089C9930744046384F5004A85152B232A1F
:1025500004025E242322040093F7B7FD5EA41C4806
:102560001CC05E2493E787005EA41C4899EB5E24A0
:102570001307002093F707286385E700A2854A85A3
:10258000A1295E2413F717001DC35C48232404000F
:10259000B307F0401CCC1C480145B5FB8317C400B1
:1025A00013F707082DD793E707045EA485B7898B37
:1025B000014791E3584818C4F9BF4111194506C6AF
:1025C000EF00B0250545EF00104ADE25011122CCB1
:1025D00026CA06CE4AC84EC613F78700AA842E84A0
:1025E00079EBD841634DE000B841634AE000014512
:1025F000F2406244D2444249B24905618280585453
:102600007DD703A904009396370123A0040063DB60
:10261000060670485E24918B99C75C401D8E5C58FD
:1026200099C33C401D8E5C540C5081462685829790
:10263000FD575A24631DF5009440F54763E8D7061B
:10264000B70740208507B3D7D700858BA5C31C48A3
:10265000232204001CC09317370163D80700FD57DD
:102660006314F5009C4091E368C84C5823A02401F2
:10267000BDDD930744046384F50026851121232AD8
:102680000402B5B70C500146854626850297FD57D2
:102690002A86E311F5F89C40B5DF75476385E700AE
:1026A00059476393E70423A0240191B713670704F4
:1026B0005AA47D5535BF83A90501E38A09F203A910
:1026C00005008D8B23A0350133093941014791E382
:1026D000D84918C4E35D20F11C540C50CA864E86BC
:1026E000268582976347A0005E2493E707045EA4D3
:1026F000C9B7AA993309A940F1BF9C49B9CF0111C3
:1027000022CC06CE2A8411C51C4D81E72EC6192283
:10271000B2459717000093872709639BF5004C404B
:102720008397C50095C722856244F240056171BD5B
:1027300097170000938747096394F5000C44CDB7C1
:102740009717000093874704E39CF5FC4C44C9BFEE
:10275000F240624401450561828001458280411159
:1027600022C406C62A844EA572A523200500232272
:102770000500232405002322050623280500232A1B
:102780000500232C0500214681451305C505EFD022
:102790003FA9971700009387E78B5CD0971700003D
:1027A0009387078E1CD4971700009387E7915CD41A
:1027B000971700009387479400D01CD8B24022445A
:1027C0004101828097050000938565F3A9A241111C
:1027D00026C2130680069384F5FFB384C4024AC060
:1027E0002E8922C406C6938544073D2E2A8401CD36
:1027F0002320050023222501310508C41386840601
:102800008145EFD0FFA12285B24022449244024983
:10281000410182801C4DADE3411106C622C49707D9
:102820000000938767FA1CD5938781819C432324FA
:10283000050423260504232805046314F5008547B1
:102840001CCD2A841D2848C02285052808C422855D
:102850002D2048C44840014691451137084405469B
:10286000A545F53D48440946C945D53D85471CCC9D
:10287000B24022444101828082804111938781814C
:1028800026C284434AC006C69C4C22C42A8999E3C6
:1028900026854937938484048044DC40FD1763D641
:1028A00007009C40B9CF8440C5BF0317C40039E777
:1028B000C177850723220406232004002322040075
:1028C000232404005CC423280400232A0400232CAE
:1028D0000400214681451305C405EFD07F94232AC7
:1028E0000402232C04022324040423260404228546
:1028F000B24022449244024941018280130484067A
:1029000071BF91454A85E13588C051FDB14723200B
:10291000F9000144E9BF797122D44AD052CC56CA99
:102920005AC85EC606D626D24ECE2A8AAE8A13046E
:1029300085040149054BFD5B09ECB25022544A85E0
:1029400092540259F249624AD24A424BB24B456113
:102950008280044483294400FD1963D409000040A7
:10296000E1BFDE24637BFB008397E400638777018C
:10297000A6855285829A3369A90093848406E9BFAB
:102980001971A6DAAE848395E500A2DC86DE328476
:1029900063DB0500DE2423A0060093F7070885E724
:1029A000930700401DA0300836C6EF00607AB2469B
:1029B000E34205FE7247BD67F98F7977BA9793B7FF
:1029C00017009CC2F1BF930700041CC0F650665468
:1029D000D654014509618280DE25011122CC06CE44
:1029E00026CA4AC8898B2E8489CF930774041CC0D9
:1029F0001CC885475CC8F2406244D2444249056124
:102A0000828074003000AA84A53FA2452A892685C9
:102A1000212A19E98317C40013F7072069FFF19BE6
:102A200093E727005EA4D1B7970700009387C7D923
:102A30009CD45E2408C008C893E707085EA4A24798
:102A40005CC8B24781CF8315E4002685EF00E072B1
:102A500011C55E24F19B93E717005EA45E243369E1
:102A6000F9002316240141BF93F5F50F2A9663144C
:102A7000C500014582801C21E38EB7FE0505C5BF58
:102A8000DDC183A7C5FF411122C406C626C2138437
:102A9000C5FF63D307003E94AA84EF004073938779
:102AA00041839C4381EF2322040023AA8182224494
:102AB000B2402685924441016F008071637EF4002C
:102AC00014403307D4006396E7009843DC433697FD
:102AD00018C05CC0D9BFBA87D84319C3E37DE4FEF0
:102AE00094433386D700631F86001040B29694C388
:102AF0003386D700E31DC7FA10435843B29694C3F8
:102B0000D8C375B76375C400B1479CC04DB71040BA
:102B1000B306C4006316D70014435843B29614C0DA
:102B200058C0C0C369B78280011126CA938435009A
:102B3000F19806CE22CC4AC84EC6A104B14763F133
:102B4000F404B14463E0B4042A8951259387418396
:102B500098433A8431E0938781839C4391E7814590
:102B60004A85352123ACA182A6854A850D21FD59D0
:102B700063173507B1472320F9004A85912D29A015
:102B8000E3D204FCB1471CC10145F2406244D24487
:102B90004249B249056182801C40858F63CE07029D
:102BA000AD4663F6F6001CC03E9404C031A05C4004
:102BB0006312870223AAF1824A85192D1305B400F6
:102BC0009307440061993307F54061D33A94898FA4
:102BD0001CC065BF5CC3CDB722874040A5BF1304AE
:102BE00035007198E30385FCB305A4404A8545266A
:102BF000E31D35FB41B799E1B2853DB7011122CC08
:102C000006CE26CA4AC84EC6328419EA953D014905
:102C1000F24062444A85D2444249B2490561828009
:102C2000AE84AA897D232689E37485FEA2854E851C
:102C3000E53D2A8971DDA6852286EFE07FFCA68529
:102C40004E853D3DF1B701114AC803A9850022CC4C
:102C500052C45AC006CE26CA4EC656C22E84328BE5
:102C6000368A63E82609DE2513F7074849C304407E
:102C70008C495848AA8AB389B4408D44B384E4028D
:102C80000947B3C4E402138716004E9763F3E400C8
:102C9000BA8493F70740B5CFA685568571352A8942
:102CA0001DE1B14723A0FA005E247D5593E7070498
:102CB0005EA4F2406244D2444249B249224A924A56
:102CC000024B056182800C484E86EFE07FF35E2464
:102CD00093F7F7B793E707085EA42328240144C8B5
:102CE0004E99B38434412320240104C45289637370
:102CF0002A01528908404A86DA85EFE09FFB1C448E
:102D00000145B38727411CC41C403E992320240160
:102D10004DB726865685C5352A8961F10C485685FA
:102D2000EFF01FD6BDBFDE25717126D34AD14ECF3D
:102D300006D722D552CD56CB5AC95EC762C566C3E7
:102D400093F70708AA892E89B284B1C39C49A1E3ED
:102D50009305000436C6C93B2320A9002328A900F7
:102D6000B24615E1B14723A0F9007D55BA502A5467
:102D70009A540A59FA496A4ADA4A4A4BBA4B2A4CD7
:102D80009A4C4D61828093070004232AF90093072F
:102D90000002A30CF1029307000302DA230DF102F3
:102DA00036CE930B5002971A0000938A2A9A054C4C
:102DB000294B26841C2099C363987709B30C94404F
:102DC000638D0C00E6862686CA854E85AD3DFD578F
:102DD000630BF518D256E69636DA1C206385071881
:102DE000FD579304140002D002D63ED202D4A301B0
:102DF000010682DC8C2015465685EFF0FFC6138451
:102E00001400825721E513F7070109C713070002D1
:102E1000A301E10613F7870009C71307B002A30156
:102E2000E10694201307A002638AE602B2572684C3
:102E300081462546182093051400130707FD637289
:102E4000E6068DC63ED61DA00504ADB73305554137
:102E50003315AC00C98F3ED0A28469BF7247930678
:102E60004700184336CE634707023AD61820930727
:102E7000E002631DF70418309307A002631BF702FA
:102E8000F2470904138747009C433ACE63C1070207
:102E90003ED22DA83307E04093E727003AD63ED034
:102EA000F1B7B387670385462E84BA9761B7FD579C
:102EB000C5B7050402D281468147254618209305EF
:102EC0001400130707FD6376E606F9F20C200D46A1
:102ED0001715000013050588EFF01FB911CD9717DE
:102EE0000000938727871D8D93070004B397A700E1
:102EF000025505045D8D2AD00C20194617150000D7
:102F00001305858593041400230CB102EFF0DFB59F
:102F100025C597D7FFFF9387E70E95E70257F2473E
:102F20001377071009CF91073ECED257D2973EDADA
:102F300049B5B387670385462E84BA9741B79D0785
:102F4000E19BA107D5B77808970600009386E6CFE6
:102F50004A860C104E8597000000E7000000FD57E0
:102F60002A8AE314F5FC8357C9007D5593F70704BB
:102F7000E39E07DE5255DDBB780897060000938676
:102F8000C6CC4A860C104E85EFF0CF96C9BF4111D2
:102F900022C42A842E8523A0014606C6EFE08F9323
:102FA000FD576317F500938701469C4391C31CC0EE
:102FB000B240224441018280FD4763F6B700D94701
:102FC0001CC17D5582807C41011122CC06CE2E860B
:102FD0002A8491C713972500BA97984319EB228545
:102FE00032C6B520AA85228562443246F240056188
:102FF00015A8854601456308D700FD566319D7001B
:10300000D9471CC00545F2406244056182802E8587
:1030100023A0070002970145FDB79387C180AA85C9
:10302000884359BF411122C42A842E85B28523A02A
:10303000014606C63924FD576317F50093870146FC
:103040009C4391C31CC0B240224441018280F1AA3A
:10305000411122C42E848395E50006C66922634986
:1030600005007C48AA977CC8B24022444101828076
:103070005E247D777D17F98F5EA4FDB7DE250111F3
:1030800022CC26CA4AC84EC606CE93F70710AA8499
:103090002E843289B68991C78395E5008946014619
:1030A00009225E247D777D17F98F5EA48315E400E5
:1030B0006244F240CE864A86B24942492685D244CD
:1030C000056125A8411122C42E848395E50006C61A
:1030D000C928FD575A24631AF500FD77FD17F98FAB
:1030E0005EA4B2402244410182808567D98F5EA4EC
:1030F00068C8C5BF8395E50005A8411122C42A848C
:103100002E85B285368623A0014606C6EFD0FFF88D
:10311000FD576317F500938701469C4391C31CC07C
:10312000B240224441018280411122C42A842E856A
:1031300023A0014606C6F128FD576317F5009387C3
:1031400001469C4391C31CC0B2402244410182808D
:10315000411122C42A842E85B28523A0014606C6C9
:103160007D28FD576317F500938701469C4391C363
:103170001CC0B240224441018280411122C42A84F1
:103180002E8523A0014606C67D20FD576317F50056
:10319000938701469C4391C31CC0B2402244410125
:1031A0008280411122C42A842E85B285368623A0CE
:1031B000014606C66928FD576317F5009387014647
:1031C0009C4391C31CC0B240224441018280828052
:1031D000828083A7C5FF1385C7FF63D50700AA9523
:1031E0009C413E958280411122C42A842E85B2855D
:1031F000368623A0014606C68D20FD576317F500CD
:10320000938701469C4391C31CC0B24022444101B4
:1032100082809307800523A0F1467D558280930725
:10322000800523A0F1467D5582809307800523A069
:10323000F1467D5582809307800523A0F146014524
:1032400082809307800523A0F1467D5582809307F5
:10325000800523A0F1467D5582809307800523A039
:10326000F1467D55828001A0257300003D3D3D2043
:103270004561737920426F6F746C6F616465722071
:103280005374617274203D3D3D0D0A00466C6167C8
:103290003A203078253038582C2056657273696F83
:1032A0006E3A203078253038582C20446174653AC5
:1032B000203078253038580D0A000000466C6167D0
:1032C0003D424F4F542C2077616974696E672066C8
:1032D0006F72206669726D776172652E2E2E0D0AEF
:1032E00000000000436865636B696E6720415050C1
:1032F0002076616C69646974792E2E2E0D0A0000A7
:1033000041505020576F7264303A20307825303861
:10331000582C20456E7472793A2030782530385810
:103320000D0A0000496E76616C696420656E7472E6
:103330007920616464726573730D0A00456E74725E
:10334000792061646472657373206E6F7420616CA0
:1033500069676E65640D0A004150502061726561B5
:10336000206E6F742070726F6772616D6D6564207E
:10337000286D61746368657320657261736520767A
:10338000616C756520307825303858290D0A0000A9
:103390004150502076616C69642C206A756D7069AB
:1033A0006E6720746F204150502E2E2E0D0A0000A3
:1033B0004A756D70206661696C65642C2073746158
:1033C00079696E6720696E20626F6F746C6F6164DB
:1033D00065720D0A00000000466C6167206572612D
:1033E0007365642C2073746179696E6720696E203F
:1033F000626F6F746C6F616465722E2E2E0D0A0001
:10340000466C61673D3078253038582028756E6BE2
:103410006E6F776E292C204150502076616C696464
:1034200020627574206E6F74206A756D70696E67A6
:103430000D0A000041505020696E76616C69642C61
:103440002073746179696E6720696E20626F6F7492
:103450006C6F616465720D0A00000000426F6F744A
:103460006C6F616465722072656164792C2077618C
:103470006974696E6720666F7220646174612E2EB4
:103480002E0D0A0046696E697368206672616D656B
:103490002072656365697665643A207665723D30B1
:1034A00078253038582C20646174653D307825309B
:1034B00038580D0A00000000556E65787065637419
:1034C00065642066696E697368206672616D652047
:1034D0002873746174653D2564290D0A000000009D
:1034E000457261736520666C616720726567696FFC
:1034F0006E206661696C65640D0A00004661696C46
:10350000656420746F20777269746520666C6167EA
:1035100020726567696F6E0D0A000000466C616776
:1035200020726567696F6E20757064617465643AB6
:1035300020666C61673D4150502C207665723D30AD
:1035400078253038582C20646174653D30782530FA
:1035500038580D0A0000000041434B2073656E741B
:103560000D0A00005570677261646520636F6D70AD
:103570006C6574652120526573657474696E67208B
:10358000746F2072756E204150502E2E2E0D0A0041
:1035900046696E697368206672616D652068616E48
:1035A000646C696E67206661696C65642C20726565
:1035B00073657474696E672073746174650D0A00B5
:1035C00045726173696E672041505020726567696A
:1035D0006F6E2E2E2E0D0A00457261736520666196
:1035E000696C6564210D0A00457261736520646F22
:1035F0006E650D0A00000000666C617368207261E0
:103600006E6765206F766572666C6F770D0A0000D5
:103610004461746120636F6D706C6574652C2074F7
:103620006F74616C20256C752062797465730D0A66
:103630000000000057616974696E6720666F722030
:1036400066696E697368206672616D652E2E2E0D37
:103650000A000000626F6F746C6F616465722068AD
:10366000616E646C65207061796C6F616420666165
:10367000696C65642C20726573657474696E67206B
:1036800073746174650D0A0072745F72696E6762AB
:1036900075666665725F696E6974000072745F7248
:1036A000696E676275666665725F707574000000AA
:1036B00072745F72696E676275666665725F676570
:1036C00074000000726220213D204E554C4C0000D9
:1036D0002E2E2F436F6D706F6E656E74732F72692F
:1036E0006E676275666665722E63000073697A653F
:1036F000203E203000000000726220213D20525404
:103700005F4E554C4C0000002C2066756E6374694A
:103710006F6E3A2000000000617373657274696F08
:103720006E2022257322206661696C65643A2066EA
:10373000696C6520222573222C206C696E6520251A
:1037400064257325730A0000232D302B2000000010
:10375000686C4C006566674546470000303132337F
:10376000343536373839414243444546000000007D
:1037700030313233343536373839616263646566E7
:103780000000000000000000000000000000000039
:103790000000000000000000000000000000000029
:1037A0000000000000000000000000000000000019
:1037B0000000000000000000000000000000000009
:1037C00000000000000000000000000000000000F9
:1037D00000000000000000000000000000000000E9
:0437E00000000000E5
:1037E40000000000000000000102030406070809AD
:1037F4000000000001020304010203040607080993
:10380400341500000A000000000000000000000061
:10381400A4370000C4370000843700000000000013
:103824000000000000000000000000000000000094
:103834000000000000000000000000000000000084
:103844000000000000000000000000000000000074
:103854000000000000000000000000000000000064
:103864000000000000000000000000000000000054
:1038740000D8B80502040608F40C00202C0000202F
:1038840055AAFFFE555500002C0000200000000042
:00000001FF
