:020000040800F2
:10000000681B00209D010008D3210008B5200008CE
:10001000D121000863070008CD2600080000000079
:10002000000000000000000000000000D7210008D0
:100030002108000800000000D5210008D92100088F
:10004000B7010008B7010008B7010008B7010008B0
:10005000B7010008B7010008B7010008B7010008A0
:10006000B7010008B7010008B7010008B701000890
:10007000B7010008B7010008B7010008B701000880
:1000800065070008B7010008B7010008B7010008BC
:10009000B7010008B7010008B7010008B701000860
:1000A000B7010008B7010008B7010008B701000850
:1000B000B7010008B7010008B7010008B701000840
:1000C000B7010008B7010008B7010008B701000830
:1000D000B7010008B5260008C1260008B7010008CE
:1000E000B7010008B7010008B7010008B701000810
:1000F000B7010008B7010008B7010008B701000800
:10010000B7010008B7010008B7010008B7010008EF
:10011000B7010008B7010008B7010008B7010008DF
:10012000B7010008B701000871070008B70100080F
:10013000B7010008B7010008B7010008B7010008BF
:10014000B7010008B7010008B7010008B7010008AF
:10015000B7010008B7010008B7010008B70100089F
:10016000B7010008B7010008B7010008B70100088F
:10017000B7010008B7010008B7010008000000003F
:10018000B7010008B7010008DFF80CD000F068FAEA
:1001900000480047053E0008681B002006488047CD
:1001A00006480047FEE7FEE7FEE7FEE7FEE7FEE75C
:1001B000FEE7FEE7FEE7FEE771220008890100087E
:1001C0002DE9F05F0546002092469B46884606468C
:1001D000814640241BE0284641464746224600F01F
:1001E00077F853465A46C01A914110D31146184623
:1001F000224600F05EF82D1A67EB01084F462246B2
:100200000120002100F055F817EB00094E41201E97
:10021000A4F10104DFDC484631462A464346BDE8E6
:10022000F09F10B5431A934209D28318881803E04F
:1002300010F8011D03F8011D521EF9D210BD40EA4D
:1002400001039B0703D009E008C9121F08C0042A54
:10025000FAD203E011F8013B00F8013B521EF9D23B
:1002600010BDD2B201E000F8012B491EFBD270474D
:100270000022F6E710B513460A4604461946FFF772
:10028000F0FF204610BD30B50B460146002020226D
:10029000012409E021FA02F59D4205D303FA02F593
:1002A000491B04FA02F52844151EA2F10102F1DCF3
:1002B00030BD202A04DB203A00FA02F1002070470A
:1002C0009140C2F1200320FA03F319439040704794
:1002D000202A04DB203A21FA02F00021704721FA9B
:1002E00002F3D040C2F12002914008431946704702
:1002F0002DE9FE4F804681EA0300C00F0C460090B6
:1003000021F0004123F00045B8EB0200A94105D2DD
:100310004046214690461C460B46024623F00040CC
:10032000104347D0270DC7F30A00C3F30A510290C8
:10033000401A019040286BDAC3F3130040F4801B8D
:100340000098924620B10023D2EB030A63EB0B0B1B
:1003500001985946C0F140025046FFF7AAFF0646F1
:100360000D4650465946019A00F08CF910EB0800F2
:100370006141002487EA115284EAE7731A4340D0AE
:10038000009A62B3019A012A4FEA075215DC001B5A
:1003900061EB02014FF0004202EA0752CDE9004250
:1003A000001C41F5801132462B4600F08CF903B059
:1003B000BDE8F08F40462146F9E7001B61EB0201E2
:1003C000001C41F5801300185B412018A2F50017AE
:1003D00047EB030140EAD570B6196D4111E06D0895
:1003E0004FEA360645EAC0754FEA0752001B61EB3B
:1003F0000201001C41F5801149084FEA3000001944
:10040000514132462B4603B0BDE8F04F00F04CB9E5
:100410000098012240000023D0EB020263EBE0735E
:10042000009821464FEAE074B8EB000061EB04014C
:10043000E9E783F000435BE781F0004158E72DE9ED
:10044000FE4F81EA030404F0004421F000410094CF
:100450004FF0000B23F0004350EA01045ED052EA53
:1004600003045BD0C3F30A54C1F30A552C44A4F22D
:10047000F3340194A0FB0254C1F3130141F4801141
:10048000C3F3130343F4801301FB024400FB034E48
:10049000840A970A44EA815447EA8357A4FB076811
:1004A00002958D0A05FB07854FEA932C04FB0C543B
:1004B0002705029D4FEA065847EA1637B5EB0805AF
:1004C0006EEB070C870E920E47EA811742EA831201
:1004D000A7FB0201B6EB0B0164EB00042B0D43EA12
:1004E0000C335E1844EB1C50DA465146E7FB020120
:1004F000C5F313044FEA0B3343EA14534FEA0432B3
:10050000019C43EA0603A4F10C040294009CCDE98B
:1005100000B400F0D8F803B0BDE8F08F0020014629
:10052000F9E72DE9F04D81EA030404F0004B21F0D6
:10053000004514464FF0000A23F0004150EA05023E
:1005400020D054EA01021DD0C5F30A570246C5F374
:100550001303C1F31300C1F30A5640F4801543F4AA
:100560008013A7EB0608101BD64608F2FD3873EB84
:10057000050002D308F1010801E092185B41B8F1CF
:10058000000F03DA00200146BDE8F08D00204FF493
:100590008011064684460EE0171B73EB050705D352
:1005A000121B63EB050306434CEA010C49084FEAB2
:1005B000300092185B4150EA0107EDD152EA030086
:1005C00012D082EA040083EA0501084305D0101B1B
:1005D000AB4106D20122002306E000224FF0004387
:1005E00002E06FF0010253101AEB06004CEB0851C9
:1005F00010EB0A0041EB0B01BDE8F04D00F054B8E0
:10060000C1F30A52C1F3130140F2FF3341F48011E8
:100610009A4202DA00200146704740F233439A4280
:10062000A2F2334202DC5242FFF752BEFFF741BE54
:1006300030B5041E71F1000404DB4FF00044404269
:1006400064EB0101141E73F1000405DB1C464FF03E
:100650000043524263EB0403994208BF904230BD0D
:10066000064C074D06E0E06840F0010394E80700FF
:1006700098471034AC42F6D3FFF78AFD6441000876
:1006800084410008202A06DBCB17203A41FA02F009
:1006900043EAE07306E041FA02F3D040C2F12002DF
:1006A000914008431946704710B5141E73F10004B9
:1006B00008DA401C41F1000192185B411A4301D154
:1006C00020F0010010BD2DE9F04D92469B4611B17E
:1006D000B1FA81F202E0B0FA80F220329046FFF7E0
:1006E000E8FD04460F4640EA0A0041EA0B01534682
:1006F0005A46084313D0114653EA010019D0C8F1F5
:1007000040025046FFF7E4FD05460E465046594666
:100710004246FFF7CEFD084305D0012004E0204605
:100720003946BDE8F08D0020054346EAE0762C43CB
:1007300037430A986305E40AA0EB08000022FD0A8B
:1007400044EA47540A3002D500200146E9E7010592
:1007500010196941DDE9084500196941BDE8F04D0E
:10076000A2E7FEE7014800F0F7B900003C010020D5
:10077000014800F0F1B90000DC00002001681823F6
:10078000CAB2103AB2FBF3F2054B6FF30901032A28
:100790009B5CC36500D9091D816508467047000050
:1007A000AA40000810B5014600208B698A6A4FF004
:1007B000C07453B1B3F5005F15D072B1012A0CD0EB
:1007C000022A0AD0032A09D104E01AB1012A06D06C
:1007D000022A03D1C96AC90100D5012010BDC96A26
:1007E000A142FAD010BD002AF7D0012AF2D0022A85
:1007F000F3D0032AF3D010BD30B50468256825F482
:1008000080252560046863608368402B036803D0FB
:1008100099600068C26030BD9A600068C16030BDF8
:10082000704772B6FEE70000002229B101291AD0F4
:1008300002291BD04FF440720E490B6823F4407319
:100840000B600B6813430B600A6822F0F8020A6021
:100850000A68022303EBC00002430A60086840F400
:100860008030086070474FF48072E5E74FF4007203
:10087000E2E70000103C02401348016889050FD5EB
:10088000016821F400710160016841F400610160B8
:10089000016821F400610160016841F400710160A8
:1008A000016849050FD5016821F480610160016884
:1008B00041F480510160016821F4805101600168B8
:1008C00041F4806101607047003C024008490A68B9
:1008D00022F440720A600A6842F004020A600A6860
:1008E0004FF4803343EA002002430A60704700005F
:1008F000103C0240064A136823F4407313601368E7
:100900001360136843F00103136001707047000027
:10091000103C0240094910B50C6824F440740C6086
:100920000C6844F440740C600C6844F001040C60E2
:100930000260BFF36F8F436010BD0000103C0240A7
:10094000074A136823F440731360136843F48073F9
:100950001360136843F001031360018070470000C7
:10096000103C0240074A136823F440731360136875
:1009700043F400731360136843F0010313600160D4
:1009800070470000103C024017490868C20617482B
:1009900005D5C26942F01002C26110220A600A68DD
:1009A000920605D5C26942F00802C26120220A609F
:1009B0000A68520605D5C26942F00402C2614022AB
:1009C0000A600A68120605D5C26942F00202C261D5
:1009D00080220A600A68920705D5C26942F02002A7
:1009E000C2610220086070470C3C02409C0100205C
:1009F00070B5114904460020C86100F075FC064638
:100A00000E4D09E0601C07D024B100F06DFC801B86
:100A1000A04201D9032070BD2868C003F2D4286821
:100A2000C00701D001202860286810F0F200F2D041
:100A3000FFF7AAFF012070BD9C0100200C3C024082
:100A40002DE9F0410446876D00F04EFC064694F80F
:100A500035000025022806D08020606584F83450D7
:100A60000120BDE8F0812068016821F016010160D5
:100A70002068416921F080014161206C08B9A06CB7
:100A800020B12068016821F0080101602068016838
:100A900021F0010101600CE000F026FC801B05281C
:100AA00007D920206065032084F8350084F834508D
:100AB000D7E720680068C007EED194F85C103F20AB
:100AC0008840B860012084F8350084F83450002054
:100AD000C7E790F83510022903D080214165012035
:100AE0007047052180F835100068016821F0010188
:100AF00001600020704770B504002BD094F83500D9
:100B0000022826D02068016821F0010101602068D8
:100B10000025056020684560206885602068C56004
:100B2000206805612168212048612046FFF726FEE4
:100B3000E56325646564A564E564256594F85C2037
:100B40003F2191408160656584F8355084F83450C8
:100B5000002070BD012070BD2DE9F84304464FF020
:100B60000009CDF8009063484FF41651A56D006858
:100B7000B0FBF1F72E6894F85C10082000FA01F140
:100B800031420FD021680A6852070BD50A6822F05B
:100B900004020A6094F85C108840A860606D40F020
:100BA0000100606594F85C104FF0010808FA01F04C
:100BB000304208D021684969090604D5A860606DF3
:100BC00040F00200606594F85C10042088403042D8
:100BD00008D021680968890704D5A860606D40F0D5
:100BE0000400606594F85C1010208840304218D0F2
:100BF00021680968090714D5A860206801684903BD
:100C000004D50068000308D5A16C07E00168C90598
:100C100003D4016821F008010160216C09B120466C
:100C2000884794F85C1020208840304231D02168F9
:100C30000968C9062DD5A86094F8350005282068F4
:100C4000016806D0490347D5006800031DD4616CD4
:100C50001CE021F0160101602068416921F080014B
:100C60004161206C08B9A06C20B12068016821F0B6
:100C70000801016094F85C103F208840A86084F867
:100C8000358084F83490216D1FE0E16B09B1204676
:100C90008847606D00282BD0606DC00714D00520F8
:100CA00084F835002068016821F001010160009896
:100CB000401C0090B84203D820680068C007F6D1F5
:100CC00084F8358084F83490E16C002910D001B0AC
:100CD0002046BDE8F04308470168C905D5D401683E
:100CE00021F01001016084F8358084F83490CCE75D
:100CF000BDE8F8830C0000202DE9F041044600F027
:100D0000F3FA06465CB1022084F83500002584F829
:100D100034502068016821F0010101600DE00120DC
:100D2000BDE8F08100F0E0FA801B052805D92020FD
:100D30006065032084F83500F2E720680068C0078A
:100D4000F0D12268116820480140D4E9010318431A
:100D5000D4E903363343184363691843A36918433E
:100D6000E3691843236A18430843616A042903D1DD
:100D7000D4E90B1319430843106020684069666A80
:100D800020F0070130460E43012704280CD1A06A49
:100D90000643E06A40B12046FFF704FD20B1402041
:100DA000606584F83570BAE7206846612046FFF731
:100DB000E5FC94F85C203F2191408160656584F8F2
:100DC00035700020ACE700003F8010F02DE9F041C5
:100DD0000446866D90F83400002501280DD00120CE
:100DE00084F8340094F835700020012F07D084F87F
:100DF000340002252846BDE8F0810220FBE70227E7
:100E000084F8357060652046FFF7F6FC94F85C10B6
:100E10003F208840B0602068016841F01601016001
:100E2000206C20B12068016841F008010160206851
:100E3000016841F001010160DCE700002DE9F047A5
:100E4000044622480F46017E01290AD0012180462E
:100E500001764CF250394846FFF7CAFD020003D034
:100E60002FE00220BDE8F0874FF0FF3038602068A7
:100E7000174D012801D0A6681CE0207C6168FFF7AF
:100E800025FD4846FFF7B4FD0246286820F004001F
:100E9000286014E0217C3046FFF7C6FC4846FFF787
:100EA000A7FD0200286820F0FA00286001D03E600B
:100EB00005E0761CD4E902100844B042EAD8FFF7F6
:100EC000DBFC002188F818101046CBE79C010020BD
:100ED000103C02400348016841F0004101600020DD
:100EE00070470000103C02402DE9F0471B4E0546BC
:100EF0001446307E1F468946012808D001203076EE
:100F00004CF250384046FFF773FD18B114E0022050
:100F1000BDE8F0879DB1012D16D0022D19D02246D3
:100F20003B464846FFF7F6FC4046FFF761FD0C499B
:100F30000A6822F001020A6000213176E8E7E1B296
:100F40004846FFF7D7FCEFE7A1B24846FFF7F8FCA9
:100F5000EAE721464846FFF705FDE5E79C0100204A
:100F6000103C0240074900200A68002A09DA054AB5
:100F7000054B0C3A1360054B13600968002900DA31
:100F800001207047103C024023016745AB89EFCD3B
:100F90002DE9F04F0022DFF838B101264FF00F099C
:100FA00006FA02F401EA0403A3427DD122F003070A
:100FB0005F44D7F8088895074FEA157C09FA0CFAC0
:100FC0000AEA0805DFF80C81404502D14FF000081D
:100FD00032E0DFF80481404502D14FF001082BE0F8
:100FE000DFF8F880404502D14FF0020824E0DFF836
:100FF000F080404502D14FF003081DE0DFF8E480A7
:10100000404502D14FF0040816E0DFF8DC8040458F
:1010100002D14FF005080FE0DFF8D080404502D143
:101020004FF0060808E0DFF8C880404502D14FF0D5
:10103000070801E04FF0080808FA0CF8A84522D18B
:101040002C4DD5F800C02CEA030CC5F800C005F102
:10105000040CDCF800509D43CCF800500CF1040562
:10106000D5F800C02CEA030CC5F800C02D1DD5F83A
:1010700000C02CEA030CC5F800C0D7F8085825EAD0
:101080000A05C7F80858056857000323BB409D436D
:101090000560D50800EB8505D5F820C057074FEA55
:1010A000D76809FA08F700E00CE02CEA070CC5F84D
:1010B00020C0C5689D43C5604568A54345608468F8
:1010C0009C438460521C102AFFF46AAFBDE8F08F85
:1010D00000300140000002400004024000080240CD
:1010E000000C0240001002400014024000180240B0
:1010F000001C0240003C01402DE9F84FDFF8BCA184
:10110000002201250AF1040B03264FF00F090BF111
:10111000040E00BF0B6805FA02F42340A34270D10D
:101120000F7907F00307012F01D0022F16D187682E
:101130004FEA420806FA08FC27EA0C07D1F80CC06F
:101140000CFA08FC4CEA070CC0F808C04768A74333
:101150000C79C4F3001494403C4344600C79E4439C
:10116000A4070AD0C4684FEA420C06FA0CF7BC4345
:101170008F6807FA0CF72743C7600C7904F0030463
:10118000022C12D1D40800EB840CDCF82040570765
:10119000FF0E09FA07F824EA0804D1F8108008FACB
:1011A00007F848EA0408CCF8208004684FEA420CAB
:1011B00006FA0CF7BC430F7907F0030707FA0CF7A0
:1011C000274307604C6814F4403F70D03C4C2768BC
:1011D00047F480472760246822F0030704F4804422
:1011E0000094384C07EB040CDCF8084897074FEAEA
:1011F000177809FA08F7BC43334FB84202D10027E9
:1012000024E054E0314FB84201D101271EE0304FB5
:10121000B84201D1022719E02E4FB84201D103276D
:1012200014E02D4FB84201D104270FE02B4FB842F4
:1012300001D105270AE02A4FB84201D1062705E06F
:10124000284FB84201D1072700E0082707FA08F71E
:101250002743CCF80878DAF800405746D1F804C0A4
:101260009C435FEACC3C00D51C433C60DBF800406B
:101270005F46D1F804C09C435FEA8C3C00D51C4318
:101280003C60DEF800407746D1F804C09C435FEA3A
:10129000CC2C00D51C433C60084F0C373C68D1F87F
:1012A00004C09C435FEA8C2C00D51C433C60521C5C
:1012B000102AFFF42FAFBDE8F88F0000003C01407A
:1012C0004438024000300140000002400004024067
:1012D00000080240000C02400010024000140240CE
:1012E00000180240001C024001488068704700005E
:1012F0000000002002488168027811448160704734
:10130000000000200B4810B5016841F40071016035
:10131000016841F480610160016841F480710160FD
:10132000032000F07FF8002000F006F800F024F819
:10133000002010BD003C024070B50D4D04464FF436
:101340007A712878B1FBF0F00A490968B1FBF0F036
:1013500000F01AFB48B9102C07D200222146501E7B
:1013600000F040F800206C6070BD012070BD0000EE
:10137000000000200C0000200A4808B5016841F474
:1013800080410160006800F4804000900548001F23
:10139000016841F080510160006800F080500090C9
:1013A00008BD00004438024000280DDB00F01F0299
:1013B000012191404009800000F1E020C0F8801137
:1013C000BFF34F8FBFF36F8F7047002809DB00F02A
:1013D0001F02012191404009800000F1E020C0F887
:1013E00000117047F0B40E4B1B680C46C3F3022388
:1013F000C3F10705042D00D90425191D072901D2C1
:10140000002300E0DB1E012606FA05F1491E2140FB
:1014100099409E40761E16403143F0BC01F06EB9F3
:101420000CED00E0064900F0070208684FF6FF03E4
:10143000184040EA0220034A104308607047000049
:101440000CED00E00000FA052DE9F0470E4605001E
:1014500065D0DFF81481D8F80000F7B200F007007B
:10146000B04207D288F80070D8F8000000F00700FA
:10147000B04254D128683D4C810712D5400703D5AE
:10148000206840F4E05020602878000703D52068E9
:1014900040F4604020602068A96820F0F000084314
:1014A00020602878C0072DD03049686808390128A5
:1014B00012D0022813D0032811D009688907002907
:1014C0002DDA216821F0030101432160FFF70CFFB1
:1014D000814641F2883A0EE009688903EFE709681E
:1014E0008901ECE7FFF700FFA0EB0901514502D9A4
:1014F0000320BDE8F0872068696800F00C00B0EBBD
:10150000810FEFD1D8F80010404601F00701B14239
:1015100007D90770006800F00700B04201D0012031
:10152000E7E72878400705D52068E96820F4E0500F
:10153000084320602878000706D52068296920F430
:10154000604040EAC100206000F038F82168084A95
:10155000C1F30311515CC8400649086006480068A1
:10156000FFF7EAFE0020C4E7003C024008380240D2
:10157000B24000080C000020040000200448054987
:1015800000680968044AC1F38221515CC840704771
:101590000C00002008380240C240000804480549F9
:1015A00000680968044AC1F34231515CC840704781
:1015B0000C00002008380240C2400008154810B551
:1015C000006810F00C02144813D04110042A0FD008
:1015D000082A0ED10F4C241F2268236802F03F0214
:1015E0005B0207D52068C0F38810A0FB010106E06C
:1015F000084610BD2168C1F38811A1FB000100233A
:10160000FEF7DEFD2168C1F30141491C4900B0FB32
:10161000F1F010BD083802400024F4002DE9F84F25
:1016200004006ED02078DFF84C93C007A9F10405C0
:101630004AD009F104000168C1F38101012908D0F1
:101640000068C0F3810002280AD1D9F800004002E6
:1016500006D52868800337D560680028E1D033E0DC
:101660006068B0F5803F10D0B0F5A02F286810D08A
:1016700020F480302860286820F48020286060688A
:10168000A8B1FFF731FE06460DE0286840F480302F
:10169000F4E740F480202860F7E700BFFFF724FE5E
:1016A000801B642873D828688003F7D50CE0FFF707
:1016B0001BFE064605E000BFFFF716FE801B6428F0
:1016C000F0D828688003F7D42078DFF8AC82800750
:1016D0004FF0000A3ED5A748001D016811F00C0F1D
:1016E00008D00068C0F3810002280BD1D9F80000AF
:1016F000400207D42868800716D5E068012800D189
:1017000012E033E1E068B8B10120C8F80000FFF74B
:10171000EBFD064605E000BFFFF7E6FD801B022853
:10172000C0D828688007F7D52868216920F0F8001C
:1017300040EAC10028600DE0C8F800A0FFF7D4FD22
:10174000064604E0FFF7D0FD801B02281FD828685A
:101750008007F7D42078000722D5864F8748616933
:10176000703771B101210160FFF7BEFD064604E04C
:10177000FFF7BAFD801B022809D838688007F7D523
:101780000EE0C0F800A0FFF7AFFD064605E082E0DE
:10179000FFF7AAFD801B02287DD838688007F7D4A0
:1017A0002078400768D5DFF8CCB100270BF13C0B5F
:1017B000DBF80000C0000BD4DBF8001041F08051D2
:1017C000CBF80010DBF80000012700F080500090FB
:1017D0006B4E3068C00510D4306840F480703060C3
:1017E000FFF782FD009005E0FFF77EFD0099401AAB
:1017F000022850D83068C005F6D55E4EA0686C3619
:1018000001280FD00528306810D020F0010030608A
:10181000306820F004003060A068B8B1FFF764FDC4
:1018200000900FE0306840F00100F4E740F0040061
:101830003060F7E7FFF758FD0099411A41F2883010
:10184000814266D830688007F4D50EE0FFF74CFD82
:10185000009007E0FFF748FD0099411A41F28830F7
:10186000814256D830688007F4D42FB1DBF80010DD
:1018700021F08051CBF80010A069C8B33D49091D83
:101880000968C1F3810102294AD00228504607D0D5
:10189000C8F8600000E03CE0FFF726FD04463BE0AE
:1018A0004746C8F86000FFF71FFD064605E000BF89
:1018B000FFF71AFD801B02282BD828688001F7D477
:1018C000D4E907010843A16A2E4A490802EB014105
:1018D000626A41EA8211084394F82C1040EA0161DF
:1018E000C9F8001001203866FFF7FEFC044606E048
:1018F0003EE000BFFFF7F8FC001B022809D828686B
:101900008001F7D534E000BFFFF7EEFC001B022892
:1019100002D90320BDE8F88F28688001F4D427E0BD
:101920000128F7D0D9F80000E26900F48001914263
:101930001CD1226A00F03F01914217D147F6C071D5
:10194000626A0140B1EB821F10D1A26A4FF0FF33EF
:1019500000F4403103EB5202B1EB024F06D194F890
:101960002C1000F07060B0EB016F01D00120D1E7C6
:101970000020CFE70438024000004742800E474273
:10198000007000400000FFFF10B5401EB0F1807FE6
:1019900001D3012010BD4FF0E02460610F216017DA
:1019A00000F0ACFE0020A06107202061002010BDE7
:1019B00038B5044690F83E00202822D181B17AB192
:1019C00094F83C0001281CD0012084F83C002063DE
:1019D000204600F0EBFD002803D1216B012901D046
:1019E000012038BD21680A684968009121680C31DE
:1019F00051E8002F42F0100241E80023002BF5D1FE
:101A000038BD022038BD000070B50C4605460068A0
:101A1000244988421DD1284600F064F8224802F08B
:101A200017FA2149B1F9081088420BD022461F4904
:101A30001D4802F077FA80B2A04203D01CA12348CF
:101A400002F018FB802219492846FFF7B1FF204811
:101A500022E02049884224D1284600F043F81E485D
:101A600002F0F6F91C49B1F9081088420CD00E4971
:101A700022468C31184802F055FA80B2A04203D0B9
:101A80000BA1164802F0F6FA07494FF480628C3138
:101A90002846FFF78DFF12480068016821F0080111
:101AA000016070BD00100140BC020020BC0100209C
:101AB00052696E676275666665722053697A652041
:101AC000746F6F20536D616C6C0D0A005400002020
:101AD000DC00002000440040480B0020980000205B
:101AE0003C01002010B504460068406994F83D10A0
:101AF000C0F3C010212911D180B12068143050E802
:101B0000001F21F0800140E80012002AF5D1606B2F
:101B100008B1FEF795FF204600F054FC20684069AC
:101B200094F83E10C0F38010222911D180B12068B2
:101B3000143050E8001F21F0400140E80012002A54
:101B4000F5D1A06B08B1FEF77BFF204600F013FC37
:101B5000002010BD10B5040014D0242084F83D00EE
:101B60002068C16821F40051C160204600F074F97A
:101B70000020206484F83D0084F83E0044F8300FD3
:101B8000207310BD012010BD70470000F8B501683A
:101B900004460868CA684B6910F00F0F4FF0000543
:101BA00059D003F0010602F49077374365D0C1079E
:101BB00005D0D10503D5216C41F001012164410715
:101BC00005D5D90703D0216C41F0020121648107BA
:101BD00005D5D90703D0216C41F004012164010728
:101BE00007D502F02001314303D0216C41F00801F8
:101BF0002164216C00293AD0800604D5900602D5D4
:101C0000204600F0EDFB20684069216CC0F3801095
:101C1000090700D460B3204600F0ADFB206840699E
:101C2000400621D52068143050E8001F21F0400103
:101C300040E80012002AF5D1A06BA8B16C490165FB
:101C4000A06BFEF746FF002811D0A06B016D01B01C
:101C5000BDE8F040084783060FD593060DD5204612
:101C6000BDE8F84000F0BCBB2046FFF78DFFF8BD93
:101C70002046FFF789FF2564F8BD266B2023012E3F
:101C800079D1C60677D5D60675D50868486800901C
:101C90004869400640D5A16B086840680004000C04
:101CA000EAD0A28D8242E7D9E085C869B0F5807F8D
:101CB0002DD020680C3050E8001F21F4807140E8DE
:101CC0000012002AF5D12068143050E8001F21F0DE
:101CD000010140E80012002AF5D12068143050E8D4
:101CE000001F21F0400140E80012002AF5D184F8DD
:101CF0003E30256320680C3050E8001F21F01001B1
:101D000040E80012002AF5D1A06BFEF799FEA08DE5
:101D1000E18D401A81B229E0A08DE18D401A81B297
:101D2000E08D0028A8D00029A6D020680C3050E80B
:101D3000002F22F4907240E80026002EF5D1206892
:101D4000143050E8002F22F0010240E80026002E57
:101D5000F5D184F83E30256320680C3050E8002F20
:101D600022F0100240E80023002BF5D12046FFF7B7
:101D70004BFEF8BDFFE705062BD5150629D594F8CF
:101D80003D002128F5D1A068B0F5805F01D1206920
:101D9000B0B1206A411C2162216800784860E08C63
:101DA000401E0004000CE084E3D12068C16821F0EB
:101DB0008001C1602068C16841F04001C160D8E77E
:101DC000206A0088C0F308004860206A801C2062F6
:101DD000E5E74006CDD55006CBD5CA68204622F0AF
:101DE0004002CA6084F83D3000F063F9C1E70000AA
:101DF0008122000870B5040004D094F83D0000254D
:101E000010B106E0012070BD84F83C50204600F07F
:101E100057F8242084F83D002068C16821F400515F
:101E2000C160204600F03CFB2068016921F490412C
:101E300001612068416921F02A0141612068C1687F
:101E400041F40051C1602564202084F83D0084F8ED
:101E50003E00002070BD000010B504460068144923
:101E6000144A88420ED11448016821F01001016023
:101E70004FF4C0611046FFF78BF8A06BFEF73BFEF6
:101E8000252010E00D49884211D10B48001F016840
:101E900021F4003101600C211046FFF779F8A06BA6
:101EA000FEF729FE2620BDE81040FFF77DBA10BDE1
:101EB000001001400000024044380240004400404D
:101EC0002DE9F04387B0064614216846FEF7D0F9A5
:101ED000DFF80C8102223168002442480323424D7E
:101EE00097064FF0070C4FF48069414537D13D49C3
:101EF0001431D1F8008048F01008C1F8008009685A
:101F000001F010010591016841F0010101600068D4
:101F1000694600F00100059058028DE81500CDE9F2
:101F2000033C2846FFF7E8F8314D30482860C5E902
:101F30000174C5E903496C61AC61EC612C6228460F
:101F40006C62FEF7D9FE08B1FEF76BFCB5630022A8
:101F500011462520AE63FFF745FA25203BE0DFF868
:101F60009480414539D11F491031D1F8008048F49F
:101F70000038C1F80080096801F40031059101685A
:101F800041F0010101600068694600F00100059020
:101F90000C208DE81500CDE9033C2846FFF7ACF88E
:101FA000134D154860352860C5E90174C5E903493A
:101FB0006C61AC61EC612C6228466C62FEF79CFEA1
:101FC00008B1FEF72EFCB563002211462620AE6351
:101FD000FFF708FA2620FFF7F8F907B0BDE8F0830D
:101FE00000100140303802400000024040640240CE
:101FF000DC000020004400408860024070477047C9
:102000002DE9F843044690F83D001F4616460D465C
:1020100020284CD1C5B1BEB194F83C00012846D06F
:10202000012084F83C004FF00008C4F840802120D3
:1020300084F83D00FFF758F9A6848146E684A0683D
:10204000B0F5805F03D004E00120BDE8F88320698B
:1020500028B12E465FF0000584F83C800EE0002693
:10206000FAE78021204600F0E9FAA0B9AEB116F8EF
:10207000010B21684860E08C401EE084E08C4B46F8
:102080004FF0000200970028EBD14FF040012046AE
:1020900000F0D4FA30B10320D7E735F8020BC0F3D3
:1020A0000800E6E7202084F83D000020CDE702206C
:1020B000CBE77047FEE70000114808B5016841F41E
:1020C00080010160016801F480010091016841F420
:1020D000001101600068002200F400100090114619
:1020E0001020FFF77FF91020FFF76FF9002211464B
:1020F0003A20FFF777F9BDE808403A20FFF765B9C5
:1021000030380240094808B5016841F0800101609B
:10211000016801F080010091016841F00101016056
:10212000006800F00100009008BD00003038024057
:10213000114810B50F4901604FF4E13141600021B1
:1021400081600C22C160C0E904128161C161FFF7A6
:1021500051FE08B1FEF765FB802208490648FFF7EB
:1021600027FC054888300068016821F008010160FB
:1021700010BD00000010014054000020BC010020F0
:10218000114810B50F4901604FF4E1314160002161
:1021900081600C22C160C0E904128161C161FFF756
:1021A00029FE08B1FEF73DFB4FF48062074906485F
:1021B000FFF7FEFB0448A4300068016821F0080125
:1021C000016010BD0044004098000020480300203A
:1021D000FEE7FEE770477047FFF78CB830B593B065
:1021E00030216846FEF744F814210CA8FEF740F8A9
:1021F0001D480025016841F080510160006800F031
:10220000805011901948016841F4804101600068D4
:10221000022400F4804011900120009000040190FD
:102220008001CDE9064008AA0420A82182E8130015
:102230000B906846FFF7F2F908B172B6FEE70CA9F9
:102240000F2081E831004FF4A0500F904FF48050E0
:10225000109005210CA8FFF7F7F8002801D072B6FE
:10226000FEE713B030BD000040380240007000406F
:102270000248016841F470010160704788ED00E098
:1022800010B5806B0021C185C184FFF77DFC10BDB6
:1022900070B5846B2068406994F83D10C0F3C0109D
:1022A0000025212904D118B1E584204600F08AF8E0
:1022B0002068406994F83E10C0F38010222904D1B0
:1022C00018B1E585204600F056F8206C40F010006B
:1022D00020642046FFF758FC70BD10B50146806BA6
:1022E00009680968C9052FD40021C18501680C312E
:1022F00051E8002F22F4807241E80023002BF5D131
:102300000168143151E8002F22F0010241E8002356
:10231000002BF5D10168143151E8002F22F0400262
:1023200041E80023002BF5D1202180F83E10016BFD
:10233000012909D101680C3151E8002F22F0100267
:1023400041E80023002BF5D1016B012902D0FFF7F2
:1023500055FE10BD818DFFF757FB10BD10B5806B8A
:10236000016B012902D0FFF74AFE10BD818D49089B
:10237000FFF74AFB10BD01680C3151E8002F22F431
:10238000907241E80023002BF5D10168143151E827
:10239000002F22F0010241E80023002BF5D1016B50
:1023A000012909D101680C3151E8002F22F01002F7
:1023B00041E80023002BF5D1202180F83E100021B8
:1023C0000163704701680C3151E8002F22F0C00210
:1023D00041E80023002BF5D1202180F83D10704703
:1023E00008B590F83E10222901D0022008BD82686D
:1023F0004FF480539A4201D1016921B1816A9A4216
:102400001BD04AB10AE00268816A5268C2F308022E
:102410000A80816A891C08E0026972B10268526808
:1024200002F07F020A70816A491C8162C18D491ED7
:102430000904090CC18503D019E002685268F1E76C
:102440000168CA6822F02002CA600168CA6822F4E2
:102450008072CA6001684A6922F001024A61202143
:1024600080F83E10016B012903D0FFF7C7FD002063
:1024700008BD0021016301680C3151E8002F22F0F2
:10248000100241E80023002BF5D101680A68D2064A
:1024900002D50A6849680091818DFFF7B5FAE6E731
:1024A00070B5044600680169E26821F440511143A7
:1024B00001612169A068E269084361691143084329
:1024C0002168CA6849F20C639A430243CA602068D3
:1024D0004169A26921F44071114341613149206889
:1024E000884202D03049884202D1FFF757F801E014
:1024F000FFF744F8E2690023192164253226B2F57A
:10250000004F626828D0A0FB0101930F9200FDF7F5
:1025100057FE0146B0FBF5F06FF01802504301EB97
:10252000800006EB0010B0FBF5F000F0F002B1FB0C
:10253000F5F002EB0012B1FBF5F06FF01803584311
:1025400001EB800006EB0010B0FBF5F000F00F008F
:1025500021681044886070BDA0FB010192185B41A6
:10256000FDF72EFE0146B0FBF5F00201B1FBF5F0E0
:102570006FF01803584301EB800006EBC000B0FB7E
:10258000F5F000F0F80002EB4002B1FBF5F0584323
:1025900001EB800006EBC000B0FBF5F000F0070097
:1025A000D6E70000001001400014014038B58162F8
:1025B00082850025134604460564222084F83E00E7
:1025C000A26B1B48D063A26B1A481064A26B1A4816
:1025D000D064A06B0A4605652168A06B091DFEF753
:1025E000F5FB206801684068009084F83C50206842
:1025F0000C3050E8001F41F4807140E80012002ABE
:10260000F5D12068143050E8001F41F0010140E886
:102610000012002AF5D12068143050E8001F41F064
:10262000400140E80012002AF5D1002038BD00002A
:10263000DB2200085D230008912200082DE9F0410B
:10264000984617460E460446069D27E0681C25D08E
:102650002DB1FEF749FEA0EB0800A8421ED9206864
:102660000C3050E8001F21F4D07140E80012002A1D
:10267000F5D12068143050E8001F21F0010140E836
:102680000012002AF5D1202084F83D0084F83E0095
:10269000002084F83C000320BDE8F0812068006839
:1026A00036EA000004D00020B842CFD00020F3E783
:1026B0000120F9E70148FFF769BA00005400002043
:1026C0000148FFF763BA000098000020FEE7000011
:1026D0007CB5044600201D46164600290BD0491E35
:1026E000CDE90041044B6A462946304600F0E8F83F
:1026F000009A002111707CBDEF2F00080907090E18
:10270000002804DB00F1E02080F80014704700F09E
:102710000F0000F1E02080F8141D704702E008C8A7
:10272000121F08C1002AFAD170477047002001E04B
:1027300001C1121F002AFBD1704700002DE9FF5F85
:1027400082B00021DDE90430020DDDF840B0034322
:1027500018D044F61050A2F2FF32424315141198DB
:1027600001281FD0A5EB0B00401C5FEA000A4FF0C8
:1027700000064E4FDFF83891B046504615D5CAF1E5
:10278000000413E0119801244AA3012801D16FEA43
:102790000B010298119AC0E90031C0E9024206B06B
:1027A000BDE8F09FCBF10000DFE704460021404A7E
:1027B000491842EB0450CDE9001012E0E00707D0C1
:1027C00032463B4640464946FDF739FE804689463B
:1027D00032463B4610461946FDF731FE06460F4687
:1027E0006410002CEAD1DDE90401DDE90023BAF12F
:1027F000000F06DAFDF723FE42464B46FDF71FFEAB
:1028000005E0FDF78EFE42464B46FDF78AFE044684
:102810000E460022284BFDF70BFF03D84FF0FF3088
:10282000014607E00022254B20463146FDF760FDBA
:10283000FDF7E6FE102409E0002C0ADB0A22002343
:10284000FDF7BEFC039B30321A55641E50EA0102AC
:10285000F2D1641C039AC4F111031444119A012AA1
:1028600003D0012208430DD10AE0084304D0002020
:102870004FF0110B119072E7A3EB0B056D1E0DE0ED
:102880005B4504DD4FF0000205F1010504E003DAC9
:102890004FF00002A5F10105002AECD00298119931
:1028A000C0E90231C0E9004579E7000000001440AA
:1028B0000000F03F300000000000F0430000E03F67
:1028C0002DE9FF4F95B09B468946064600250FE24D
:1028D000252877D100242746F84A0121059400E0F5
:1028E000044316F8013F203B01FA03F01042F7D1F0
:1028F00030782A2811D06FF02F033078A0F1300201
:10290000092A16D8059A44F0020402EB820203EB6E
:1029100042021044761C0590EFE759F8042B05920B
:10292000002A03DA504244F40054059044F00204B3
:10293000761C30782E2816D116F8010F44F00404C6
:102940002A280DD06FF02F023078A0F13003092B28
:1029500009D807EB870302EB4303C718761CF3E79C
:1029600059F8047B761C30786C280FD006DC4C2894
:1029700017D068280DD06A2814D104E0742810D02C
:102980007A280FD10DE044F400140AE044F48014D6
:1029900001E044F440147278824202D104F58014BC
:1029A000761C761C307866280BD013DC582877D03C
:1029B00009DC002875D04528F6D04628F4D04728F1
:1029C0001AD19DE118E0632835D0642879D06528B4
:1029D00012D195E1702873D008DC6728F1D06928FE
:1029E0006FD06E280DD06F2806D1B5E073282CD09B
:1029F000752875D0782874D05A46179990476D1C61
:102A000075E1C4F30250022809D003280DD0D9F88B
:102A1000001004280DD00D6009F1040967E1D9F810
:102A20000010EA17C1E90052F6E7D9F800100D804E
:102A3000F2E70D70F0E719F8041B8DF80010002084
:102A40008DF80100EA46012003E059F804AB4FF08D
:102A5000FF3061074FF0000102D40DE008F10101E1
:102A60008846B9420FDA8045F8DB1AF808100029C9
:102A7000F4D108E008F1010188468142FADB1AF836
:102A800008100029F6D105985B46A0EB08072146FF
:102A90003846179A00F094FA284400EB080507E03E
:102AA0004DE029E10DE01AF8010B5A4617999047BD
:102AB000B8F10108F7D25B4621463846179A13E170
:102AC00042E00A220092C4F302524FF0000A022AA6
:102AD00008D059F804CB032A4FEAEC710AD00DE074
:102AE00029E02AE009F1070121F00702F2E802C11A
:102AF000914609E00FFA8CFC4FEAEC71042A03D1ED
:102B00004FFA8CFC4FEAEC71002907DA0A460021E3
:102B1000DCF1000C61EB02012D2202E0220504D55C
:102B20002B228DF80420012203E0E20701D02022AD
:102B3000F7E7904659E00A2102E010220DE010214B
:102B40004FF0000A00910BE010224FF0000A44F011
:102B500004040827009203E008224FF0000A0092C4
:102B6000C4F30252022A05D059F804CB0021032AEB
:102B700008D009E009F1070121F00702F2E802C1DB
:102B8000914605E01FFA8CFC042A01D10CF0FF0CE1
:102B90004FF00008220728D5702806D0009B83F04C
:102BA000100353EA0A0305D00EE040228DF80420FA
:102BB000012208E05CEA010206D030228DF80420F0
:102BC0008DF8050002229046009B83F0080353EA2B
:102BD0000A030AD15CEA010201D1620705D530225D
:102BE0008DF804204FF001087F1E582804D034A02F
:102BF00003900EA802900DE036A0F9E75346604618
:102C0000009AFDF7DDFA84460398825C0298401E24
:102C1000029002705CEA0100F0D1029806A9081A3D
:102C200000F1200A600702D524F4803400E0012777
:102C3000574502DDA7EB0A0000E0002000EB0A0187
:102C4000009005984144401A0590E00306D45B4685
:102C50002146179A059800F0B3F90544002706E0CD
:102C600001A85A46C05D179990476D1C7F1C4745C7
:102C7000F6DBE0030CD55B462146179A059800F079
:102C80009FF9054404E030205A46179990476D1C7F
:102C90000099481E00900029F5DC08E0029802998E
:102CA0005A460078491C0291179990476D1CBAF159
:102CB0000001AAF1010AF1DC65E100000928010028
:102CC00030313233343536373839616263646566A2
:102CD0000000000030313233343536373839414264
:102CE000434445460000000000F058F90544761CB6
:102CF000307800287FF4ECAD19B02846BDE8F08F9D
:102D0000620700D4062709F1070222F0070CFCE84D
:102D10000223E14603F000485FEA080C02D00FF2FC
:102D2000702C0DE05FEA045C02D50FF2682C07E01E
:102D30005FEAC47C02D00FF2602C01E0AFF2700CAD
:102D40004FF0FF3823F00043CDF850C065280CD079
:102D500006DC452809D046281DD047283DD13DE056
:102D6000662818D067287ED138E00021112F01DBBA
:102D7000112000E0781CCDE9000106A90EA8FFF79C
:102D8000DDFCDDE90F010E9A03910021009207F1AD
:102D9000010A04914DE04FF000400097CDE9011089
:102DA00006A90EA8FFF7CAFCDDE90F0203920E9BED
:102DB00011990022DDF80CA00093049211B9791C3E
:102DC00000EB010AB7EB0A0004D4C0F1FF3007F1B1
:102DD000010A0490AAEB0700019044E0012F00DAF9
:102DE00001270021112F01DD112000E03846CDE937
:102DF000000106A90EA8FFF7A1FCDDE90F010E9A5C
:102E00000391002104910092BA4621070CD4039942
:102E1000514500DA8A46BAF1010F05DD009AAAF1A0
:102E20000101515C302908D0B84202DA10F1040FD8
:102E300006DA0121CDE9011015E0AAF10101E9E767
:102E4000002805DC049901440491AAEB000102E08A
:102E5000411C514500DD8A460499401A401C0190EE
:102E60004FF000400290200704D40198504501DB48
:102E7000CDF8048000208DF84F0002980DF14F0727
:102E8000B0F1004F25D02B200E9002984FF0020891
:102E900000280CDA404202902D200E9007E00A2113
:102EA0000298FDF7F0F93031029007F8011DB8F1F2
:102EB0000001A8F10108F2DC02980028EFD1791E88
:102EC0000E980870307800F0200040F0450007F8B8
:102ED000020D12A8C01B00F107081498007800B179
:102EE000012000EB0A01019801EBE07105984144D3
:102EF000401A401E0590E00306D45B462146179A0F
:102F0000059800F05DF805441498007818B15A4609
:102F1000179990476D1CE00324D55B462146179A0C
:102F2000059800F04DF805441CE00498002807DBE4
:102F3000DDE90301884203DD0098405C179901E058
:102F4000179930205A469047049805F10105401C16
:102F500004900198401E019004D12E205A461799E2
:102F600090476D1CBAF10001AAF1010ADDDC05E011
:102F700017F8010B5A46179990476D1CB8F10001DC
:102F8000A8F10108F4DC5B462146179A0598ABE6E8
:102F90002D0000002B000000200000002DE9F04172
:102FA000044600251E461746880404D405E0394629
:102FB0002020B0476D1C641EF9D52846BDE8F0817D
:102FC0002DE9F041044600251E469046C80301D570
:102FD000302700E02027880404D505E04146384624
:102FE000B0476D1C641EF9D52846BDE8F0814A68DB
:102FF000002A06D00A68531C0B6010704868401EF7
:10300000486070478AB20146014800F039BF0000AD
:10301000480B00208AB210B501464FF47A73044879
:10302000FEF7EEFF002801D04FF0FF3010BD00008A
:10303000980000202DE9F04786B000264518059637
:1030400000F0C8FE0446681E00F0C4FE05464FF0BE
:10305000FF3A002C01DB002D03DA504606B0BDE834
:10306000F087FDF77FFF0227DFF838804FF0010976
:1030700012E000BF04EB440108EB810004970096C6
:103080008068CDE9020905A96846FDF7D7FE10B1B1
:10309000FDF720FFE1E7641CAC42EBDDFDF71AFF12
:1030A0000020DBE7CC4000080B4610B5014618466F
:1030B000FDF7B7F8002010BD2DE9F04115460E468A
:1030C0000746FDF74FFF00240DE032593919002360
:1030D0000220FDF709FF28B1FDF7FCFE4FF0FF309D
:1030E000BDE8F081241DAC42EFD3FDF7F3FE0020D4
:1030F000F6E7FEF7F9B8000006680446456872B6C0
:1031000000204FF0E0210861486188611348FEF714
:10311000E9FC1348FEF7E6FC1048FEF71BFD1048DB
:10312000FEF718FD00214A1E880000F1E020C0F8DB
:103130008021C0F88022491C0829F5DB0948046079
:1031400086F30888002080F30988BFF34F8FBFF310
:103150006F8F80F3108862B6A847FEE75400002006
:103160009800002008ED00E00FB44FF4807100B526
:10317000C1B043AB6846429AFFF7AAFA002808DDBF
:10318000FF2800D9FF2082B2642369460248FEF777
:1031900037FF41B05DF814FB54000020BFF34F8FA0
:1031A00005480168054A01F4E06111430160BFF37D
:1031B0004F8F00BFFDE700000CED00E00400FA05B2
:1031C000014800F043BC00002C00002070B52048EE
:1031D000046846681F4D286828B183691BB13246D0
:1031E00021461DA09847A4F10050B0F5403F0CD9EE
:1031F000A4F18050B0F5803F07D92868002825D079
:103200008169002922D01DA00AE0114840423044C3
:10321000B0F5502F06D32868C0B18169B1B11DA0A7
:10322000884713E0F00705D0641C09D0761C07D04E
:10323000012070BD286848B1816939B11BA0EFE752
:10324000286818B1816909B120A0E9E7002070BDA4
:103250000000010850000020415050205374616369
:103260006B3A203078253038582C205265736574BD
:103270003A203078253038580D0A0000496E7661C2
:103280006C696420737461636B20706F696E746520
:10329000720D0A00496E76616C696420726573650F
:1032A0007420766563746F720D0A00005265736551
:1032B0007420766563746F72206E6F742054687525
:1032C0006D62206D6F64650D0A0000004150502052
:1032D00061726561206E6F742070726F6772616DCC
:1032E0006D65640D0A00000070B5094DB5F8001455
:1032F000814203D80020A5F8000470BD091A8CB2E1
:10330000291822460248FCF78CFFA5F8004470BD3E
:10331000540F0020F8B5264C06460D46206828B10B
:1033200083691BB10A46314622A098472E4890F87F
:103330001018022908D0206818B182690AB12BA0A0
:1033400090474FF0FF30F8BD2A463146022000F08A
:1033500017FB0700206806D018B1816909B12DA0BC
:1033600088473846F8BD28B183691BB12A463146E3
:1033700030A098472068062102693D4890472068A0
:1033800018B1816909B13BA08847002000903C48F2
:103390000099491C00918142FAD3206818B18169D3
:1033A00009B138A088472068006A80470020F8BD2E
:1033B0005000002046696E697368206672616D6511
:1033C0002072656365697665643A207665723D3082
:1033D00078253038582C20646174653D307825306C
:1033E00038580D0A00000000540F0020556E657813
:1033F0007065637465642066696E697368206672BF
:10340000616D65202873746174653D2564290D0A1A
:10341000000000004661696C656420746F2077725B
:1034200069746520666C616720726567696F6E0DEF
:103430000A000000466C616720726567696F6E2044
:10344000757064617465643A20666C61673D4150D3
:10345000502C207665723D3078253038582C206409
:103460006174653D3078253038580D0A0000000041
:103470005C41000841434B2073656E740D0A0000E7
:10348000A08601005570677261646520636F6D707E
:103490006C6574652120526573657474696E67206C
:1034A000746F2072756E204150502E2E2E0D0A0022
:1034B0002DE9F0410E46074600F07EF8002818D1AD
:1034C000204C0120214D84F8100894F80008D4F80D
:1034D000F8173044C01C20F0030008441A49884201
:1034E00009D9286818B1816909B119A088474FF036
:1034F000FF30BDE8F08131461B4800F045F9060079
:10350000F7D1C7B900F014F9060019D184F81108F1
:10351000022084F81008286868B182695AB11349FA
:10352000D4F8F807014412A09047286818B18169BF
:1035300009B118A088472868062102691D489047EC
:103540003046D6E7540F002000000E08500000203F
:10355000666C6173682072616E6765206F76657254
:10356000666C6F770D0A0000561300200000FFF70D
:103570004461746120636F6D706C6574652C207498
:103580006F74616C20256C752062797465730D0A07
:103590000000000057616974696E6720666F7220D1
:1035A00066696E697368206672616D652E2E2E0DD8
:1035B0000A0000005C4100082DE9F041164D95F825
:1035C000110810B10020BDE8F081144C206818B13A
:1035D000816909B112A088472068174F4FF4502124
:1035E0004268384690470600206806D018B18169C5
:1035F00009B112A088473046E5E718B1816909B1E1
:1036000012A088470020C5F8F87785F80008012047
:1036100085F81108D6E70000540F00205000002064
:1036200045726173696E6720415050207265676909
:103630006F6E2E2E2E0D0A00000001084572617378
:1036400065206661696C6564210D0A0045726173CD
:103650006520646F6E650D0A0000000010B5174C00
:10366000042217492068C3681648984790B9206813
:1036700013490422C3681348091D001D984748B91F
:1036800020680F490422C3680E4808310830984763
:10369000002812D00C494FF0FF30C1F80408C1F8DF
:1036A0000808C1F80C082068002806D081690029A4
:1036B00003D0BDE8104005A0084710BD5000002011
:1036C0005817002000000E08540F00205265616456
:1036D00020666C616720726567696F6E206661693C
:1036E0006C65642C2066616C6C6261636B20746F26
:1036F000206572617365642064656661756C7473BE
:103700000D0A000070B5084C40F61401204694F8EC
:10371000125804F5FF64FCF7ABFD0448206000205C
:103720002076A57670BD0000540F0020000001082F
:1037300038B5134C94F8002802B304F2FC716846C3
:10374000FCF76FFD94F800086A46C0F104011044CC
:10375000FF22FCF786FD0B49D4F8F807042209681C
:103760008B6869469847002807D1D4F8F817091DD7
:10377000C4F8F817002184F8001838BD002038BDBF
:10378000540F0020500000202DE9F0470F00804624
:1037900050D02A4CDFF8A890002594F8001804F2C5
:1037A000FC7A59B927E000BF18F8052000F80A2074
:1037B00094F80008401C84F800086D1C94F8000878
:1037C000042802D2BD42EFD315E0C0B2042812D1C2
:1037D000D9F800102646D4F8F8078B680422514621
:1037E0009847002827D1D6F8F807001DC6F8F80733
:1037F000002086F800087E1B36F0030711D0D9F8A8
:10380000002008EB0501D4F8F80793683A4698477A
:10381000002810D1D4F8F8073D443844F61BC4F80A
:10382000F8073EB108EB050132465046FCF7F9FCBB
:1038300084F800680020BDE8F0870000540F0020E5
:103840005000002070B51C4C06460D46B4F800042C
:103850000E281AD32078552802D16078AA2801D0E2
:1038600001200CE0A07AFF2808D1E07AFD2805D1DC
:10387000207B552802D1607B552808D00220FFF715
:1038800033FDB4F800040E28E4D2002070BD54F8D3
:10389000020F00BAE17820F0FF0008433060606852
:1038A000E17900BA20F0FF00084328600E20FFF7FE
:1038B0001BFD012070BD0000540F00202DE9F047D2
:1038C0002D4C81468846B4F800040B282ED320786E
:1038D000552802D16078AA2801D0012020E0A078E4
:1038E000E178000440EA012720790743B4F8050095
:1038F00045BA40F2F53085422CD8B4F8000405F101
:103900000B06B04212D3E81DC11C05F1090AB142F1
:1039100020D221180022098891FA91FC05210CE09F
:10392000FFF7E2FCB4F800040B28D0D20020BDE879
:10393000F087635C491C1A4492B28142F9D3624514
:1039400008D114F80A00552804D104EB0A00407885
:10395000552801D00220E3E725B12A46E11D07489A
:10396000FCF75FFCA8F80050B0B2C9F80070FFF790
:10397000BBFC0120DBE70000540F002056130020A1
:103980002DE9F843284C064615462068DFF89C9040
:103990000F4642684FF40031484690475FEA0008FE
:1039A00008D0206818B1816909B121A08847404634
:1039B000BDE8F8838DF80060300A8DF80100300C06
:1039C0008DF80200300E8DF803002068042269464D
:1039D0008368484698470028EAD18DF80070380A75
:1039E0008DF80100380C8DF80200380E8DF80300B8
:1039F00020680422694683680C48001D9847002807
:103A0000D6D18DF80050280A8DF80100280C8DF8C9
:103A10000200280E8DF8030020680422694683689E
:103A2000024808309847C3E75000002000000E0805
:103A3000457261736520666C616720726567696FA6
:103A40006E206661696C65640D0A000070B54FF008
:103A5000FF31002845D04268002A42D08268002AFF
:103A60003FD0C268002A3CD00269002A39D042699E
:103A7000002A36D0C269002A33D0026A002A30D028
:103A80002F4C2060816909B12EA08847FFF73AFECC
:103A9000FFF7E4FD334D206830B1866926B105F6A5
:103AA000040131A00EC9B047D5F8040801282068E8
:103AB00019D018B1816909B137A08847FFF786FB93
:103AC00000282CD0D5F80418022913D0481C2068EF
:103AD00020D0002829D08269002A26D035A090471E
:103AE00023E0084670BD00281FD0816900291CD042
:103AF0003DA019E0206818B1816909B144A0884748
:103B00002068C1694A488847206870B1816961B1FD
:103B100048A009E048B1816939B150A004E02068AB
:103B200018B1816909B157A08847012085F81208AA
:103B3000206818B1816909B15CA08847002070BD78
:103B4000500000203D3D3D204561737920426F6F5C
:103B5000746C6F61646572205374617274203D3DB2
:103B60003D0D0A00540F0020466C61673A20307802
:103B7000253038582C2056657273696F6E3A2030A4
:103B800078253038582C20446174653A20307825E7
:103B90003038580D0A000000436865636B696E6732
:103BA000204150502076616C69646974792E2E2E04
:103BB0000D0A0000466C61673D307825303858208A
:103BC00028756E6B6E6F776E292C204150502076D1
:103BD000616C696420627574206E6F74206A756D03
:103BE00070696E670D0A0000466C61673D424F4F79
:103BF000542C2077616974696E6720666F72206645
:103C000069726D776172652E2E2E0D0A000000001C
:103C10004150502076616C69642C206A756D706922
:103C20006E6720746F204150502E2E2E0D0A00001A
:103C3000000001084A756D70206661696C65642C2E
:103C40002073746179696E6720696E20626F6F748A
:103C50006C6F616465720D0A00000000466C61675C
:103C6000206572617365642C2073746179696E6775
:103C700020696E20626F6F746C6F616465722E2EA6
:103C80002E0D0A0041505020696E76616C69642CDB
:103C90002073746179696E6720696E20626F6F743A
:103CA0006C6F616465720D0A00000000426F6F74F2
:103CB0006C6F616465722072656164792C20776134
:103CC0006974696E6720666F7220646174612E2E5C
:103CD0002E0D0A007FB5244C94F8120800283BD022
:103CE000B4F80004214DD0F5806109D02A68204441
:103CF0005269904720B1B4F800140844A4F80004B5
:103D000094F810180020022903D00090ADF80400A8
:103D100023E00290039003A902A8FFF793FD002877
:103D20001AD0DDE90201FFF7F5FA002814D028685F
:103D300080B1816971B10EA00BE000BFBDF8041025
:103D40000098FFF7B5FB40B1286818B1816909B147
:103D500013A08847FFF7D6FC7FBD01A96846FFF78F
:103D6000ADFD0028EAD17FBD540F00205000002097
:103D700046696E697368206672616D652068616E60
:103D8000646C696E67206661696C65642C2072657D
:103D900073657474696E672073746174650D0A00CD
:103DA000626F6F746C6F616465722068616E646CC1
:103DB00065207061796C6F6164206661696C65640F
:103DC0002C20726573657474696E672073746174F6
:103DD000650D0A0010B502460949002000EB4004B9
:103DE00051F82430934205D801EB840464682344DD
:103DF000934204D8401C0C28F0D34FF0FF3010BD84
:103E0000CC400008FDF77EFAFEF7E8F9FEF77AF9F4
:103E1000FEF752F9FEF78CF9FEF7B2F900F0D6F88A
:103E200000F0E0F8FCE70000074910B54FF48062AD
:103E3000A1F10C0000F05EF80449BDE810408022BA
:103E4000A1F10C0000F056B8540B0020C80200206D
:103E500000B5034600F0AAF8002808D0012807D0D2
:103E6000D888410898884008814204D9081A00BDC2
:103E7000B3F9080000BDB3F90820401A101A00BDBC
:103E800070B515460E46040018D0FFF7E1FF002874
:103E90002FD0A84200D285B2B4F90810A088A1EBB7
:103EA00050022168AA4201EB500109DD2A46304642
:103EB000FCF7B7F9A08805EB500116E0AFF30080DE
:103EC0003046FCF7AEF9B4F90800A188A0EB510028
:103ED0002A1A30442168FCF7A4F9A088C14361F391
:103EE00000002189A1EB5001691A61F34F00A08005
:103EF000284670BD10B508B1002A01DCAFF3008080
:103F00000379002403F0010364F3000383808379C1
:103F100003F0010364F30003C380016022F0030196
:103F2000018110BD70B515460E4604001AD0FFF78A
:103F30008FFFB4F90810081A0004000C2DD0A84215
:103F400000D20546E088A1EB50022168AA4201EBAD
:103F5000500009DD2A463146FCF763F9E08805EB9D
:103F6000500116E0AFF300803146FCF75AF9B4F97E
:103F70000800E188A0EB51002A1A81192068FCF79B
:103F800050F9E088C14361F300002189A1EB5001A1
:103F9000691A61F34F00E080284670BD10B518B172
:103FA00000218180C18010BDAFF300808188C0886E
:103FB0004A08B2EB500F07D1C907B1EBC07F01D15E
:103FC000002070470120704702207047044910B557
:103FD00002200870FFF728FFBDE81040FFF7F0B897
:103FE000100000202DE9F0410C4D00242E1F10E0A0
:103FF000FDF77AF904EB440205EB8201D1E90137C0
:104000003B44834203D8886055F822008047641CF3
:10401000E4B230788442EBD3BDE8F0811400002094
:1040200010B50E48FFF714FF0404240C15D00B49FB
:10403000224680390948FFF723FF084A08A1803A41
:104040000B4800F017F80548FFF7A8FF2146034882
:10405000BDE810408038FCF70BB910BDBC02002051
:10406000626F6F746C6F616465723A25730D0A003C
:10407000540000200FB44FF4807130B5C1B0054634
:1040800046AB6846459AFEF723FB040005D54FF082
:10409000FF3041B030BC5DF814FBA2B20A23694680
:1040A0002846FDF7ADFF2046F3E700061016000690
:1040B00010160000000000000000010203040607C3
:1040C00008090000000001020304000000000008CD
:1040D0000040000000000000004000080040000018
:1040E0000100000000800008004000000200000005
:1040F00000C00008004000000300000000000108AC
:10410000000001000400000000000208000002009E
:104110000500000000000408000002000600000086
:104120000000060800000200070000000000080868
:10413000000002000800000000000A080000020061
:104140000900000000000C08000002000A00000046
:1041500000000E08000002000B00000055AAFFFE40
:104160005555000084410008000000205400000064
:104170001C270008D841000854000020141B000030
:104180002C270008010000001000000000000000C3
:104190000024F4000000000021400008640000003A
:1041A00000000000D53C00080A00000000000000EC
:1041B000F330000835300008B9300008A930000895
:1041C000153000080530000869310008F930000892
:0841D0009D3100080000000011
:040000050800018965
:00000001FF
